{
	"Votingsystem.sol": {
		"VotingSystem": {
			"abi": [
				{
					"inputs": [],
					"stateMutability": "nonpayable",
					"type": "constructor"
				},
				{
					"anonymous": false,
					"inputs": [
						{
							"indexed": true,
							"internalType": "uint256",
							"name": "id",
							"type": "uint256"
						},
						{
							"indexed": false,
							"internalType": "string",
							"name": "name",
							"type": "string"
						}
					],
					"name": "CandidateAdded",
					"type": "event"
				},
				{
					"anonymous": false,
					"inputs": [
						{
							"indexed": true,
							"internalType": "address",
							"name": "voter",
							"type": "address"
						},
						{
							"indexed": true,
							"internalType": "uint256",
							"name": "candidateId",
							"type": "uint256"
						}
					],
					"name": "Voted",
					"type": "event"
				},
				{
					"inputs": [
						{
							"internalType": "string",
							"name": "_name",
							"type": "string"
						}
					],
					"name": "addCandidate",
					"outputs": [],
					"stateMutability": "nonpayable",
					"type": "function"
				},
				{
					"inputs": [
						{
							"internalType": "uint256",
							"name": "",
							"type": "uint256"
						}
					],
					"name": "candidates",
					"outputs": [
						{
							"internalType": "string",
							"name": "name",
							"type": "string"
						},
						{
							"internalType": "uint256",
							"name": "voteCount",
							"type": "uint256"
						}
					],
					"stateMutability": "view",
					"type": "function"
				},
				{
					"inputs": [
						{
							"internalType": "uint256",
							"name": "_candidateId",
							"type": "uint256"
						}
					],
					"name": "castVote",
					"outputs": [],
					"stateMutability": "nonpayable",
					"type": "function"
				},
				{
					"inputs": [
						{
							"internalType": "address",
							"name": "",
							"type": "address"
						}
					],
					"name": "hasVoted",
					"outputs": [
						{
							"internalType": "bool",
							"name": "",
							"type": "bool"
						}
					],
					"stateMutability": "view",
					"type": "function"
				},
				{
					"inputs": [
						{
							"internalType": "uint256",
							"name": "_candidateId",
							"type": "uint256"
						}
					],
					"name": "queryVotes",
					"outputs": [
						{
							"internalType": "uint256",
							"name": "",
							"type": "uint256"
						}
					],
					"stateMutability": "view",
					"type": "function"
				},
				{
					"inputs": [],
					"name": "totalCandidates",
					"outputs": [
						{
							"internalType": "uint256",
							"name": "",
							"type": "uint256"
						}
					],
					"stateMutability": "view",
					"type": "function"
				}
			],
			"devdoc": {
				"kind": "dev",
				"methods": {},
				"version": 1
			},
			"evm": {
				"assembly": "    /* \"Votingsystem.sol\":61:1356  contract VotingSystem {... */\n  mstore(0x40, 0x80)\n    /* \"Votingsystem.sol\":469:521  constructor() {... */\n  callvalue\n  dup1\n  iszero\n  tag_1\n  jumpi\n  0x00\n  dup1\n  revert\ntag_1:\n  pop\n    /* \"Votingsystem.sol\":512:513  0 */\n  0x00\n    /* \"Votingsystem.sol\":494:509  totalCandidates */\n  0x02\n    /* \"Votingsystem.sol\":494:513  totalCandidates = 0 */\n  dup2\n  swap1\n  sstore\n  pop\n    /* \"Votingsystem.sol\":61:1356  contract VotingSystem {... */\n  dataSize(sub_0)\n  dup1\n  dataOffset(sub_0)\n  0x00\n  codecopy\n  0x00\n  return\nstop\n\nsub_0: assembly {\n        /* \"Votingsystem.sol\":61:1356  contract VotingSystem {... */\n      mstore(0x40, 0x80)\n      callvalue\n      dup1\n      iszero\n      tag_1\n      jumpi\n      0x00\n      dup1\n      revert\n    tag_1:\n      pop\n      jumpi(tag_2, lt(calldatasize, 0x04))\n      shr(0xe0, calldataload(0x00))\n      dup1\n      0x09eef43e\n      eq\n      tag_3\n      jumpi\n      dup1\n      0x3477ee2e\n      eq\n      tag_4\n      jumpi\n      dup1\n      0x3866965c\n      eq\n      tag_5\n      jumpi\n      dup1\n      0x3eb76b9c\n      eq\n      tag_6\n      jumpi\n      dup1\n      0x462e91ec\n      eq\n      tag_7\n      jumpi\n      dup1\n      0xb4207d54\n      eq\n      tag_8\n      jumpi\n    tag_2:\n      0x00\n      dup1\n      revert\n        /* \"Votingsystem.sol\":237:277  mapping(address => bool) public hasVoted */\n    tag_3:\n      tag_9\n      0x04\n      dup1\n      calldatasize\n      sub\n      dup2\n      add\n      swap1\n      tag_10\n      swap2\n      swap1\n      tag_11\n      jump\t// in\n    tag_10:\n      tag_12\n      jump\t// in\n    tag_9:\n      mload(0x40)\n      tag_13\n      swap2\n      swap1\n      tag_14\n      jump\t// in\n    tag_13:\n      mload(0x40)\n      dup1\n      swap2\n      sub\n      swap1\n      return\n        /* \"Votingsystem.sol\":183:230  mapping(uint256 => Candidate) public candidates */\n    tag_4:\n      tag_15\n      0x04\n      dup1\n      calldatasize\n      sub\n      dup2\n      add\n      swap1\n      tag_16\n      swap2\n      swap1\n      tag_17\n      jump\t// in\n    tag_16:\n      tag_18\n      jump\t// in\n    tag_15:\n      mload(0x40)\n      tag_19\n      swap3\n      swap2\n      swap1\n      tag_20\n      jump\t// in\n    tag_19:\n      mload(0x40)\n      dup1\n      swap2\n      sub\n      swap1\n      return\n        /* \"Votingsystem.sol\":290:320  uint256 public totalCandidates */\n    tag_5:\n      tag_21\n      tag_22\n      jump\t// in\n    tag_21:\n      mload(0x40)\n      tag_23\n      swap2\n      swap1\n      tag_24\n      jump\t// in\n    tag_23:\n      mload(0x40)\n      dup1\n      swap2\n      sub\n      swap1\n      return\n        /* \"Votingsystem.sol\":745:1104  function castVote(uint256 _candidateId) public {... */\n    tag_6:\n      tag_25\n      0x04\n      dup1\n      calldatasize\n      sub\n      dup2\n      add\n      swap1\n      tag_26\n      swap2\n      swap1\n      tag_17\n      jump\t// in\n    tag_26:\n      tag_27\n      jump\t// in\n    tag_25:\n      stop\n        /* \"Votingsystem.sol\":533:733  function addCandidate(string memory _name) public {... */\n    tag_7:\n      tag_28\n      0x04\n      dup1\n      calldatasize\n      sub\n      dup2\n      add\n      swap1\n      tag_29\n      swap2\n      swap1\n      tag_30\n      jump\t// in\n    tag_29:\n      tag_31\n      jump\t// in\n    tag_28:\n      stop\n        /* \"Votingsystem.sol\":1116:1353  function queryVotes(uint256 _candidateId) public view returns (uint256) {... */\n    tag_8:\n      tag_32\n      0x04\n      dup1\n      calldatasize\n      sub\n      dup2\n      add\n      swap1\n      tag_33\n      swap2\n      swap1\n      tag_17\n      jump\t// in\n    tag_33:\n      tag_34\n      jump\t// in\n    tag_32:\n      mload(0x40)\n      tag_35\n      swap2\n      swap1\n      tag_24\n      jump\t// in\n    tag_35:\n      mload(0x40)\n      dup1\n      swap2\n      sub\n      swap1\n      return\n        /* \"Votingsystem.sol\":237:277  mapping(address => bool) public hasVoted */\n    tag_12:\n      mstore(0x20, 0x01)\n      dup1\n      0x00\n      mstore\n      keccak256(0x00, 0x40)\n      0x00\n      swap2\n      pop\n      sload\n      swap1\n      0x0100\n      exp\n      swap1\n      div\n      0xff\n      and\n      dup2\n      jump\t// out\n        /* \"Votingsystem.sol\":183:230  mapping(uint256 => Candidate) public candidates */\n    tag_18:\n      mstore(0x20, 0x00)\n      dup1\n      0x00\n      mstore\n      keccak256(0x00, 0x40)\n      0x00\n      swap2\n      pop\n      swap1\n      pop\n      dup1\n      0x00\n      add\n      dup1\n      sload\n      tag_36\n      swap1\n      tag_37\n      jump\t// in\n    tag_36:\n      dup1\n      0x1f\n      add\n      0x20\n      dup1\n      swap2\n      div\n      mul\n      0x20\n      add\n      mload(0x40)\n      swap1\n      dup2\n      add\n      0x40\n      mstore\n      dup1\n      swap3\n      swap2\n      swap1\n      dup2\n      dup2\n      mstore\n      0x20\n      add\n      dup3\n      dup1\n      sload\n      tag_38\n      swap1\n      tag_37\n      jump\t// in\n    tag_38:\n      dup1\n      iszero\n      tag_39\n      jumpi\n      dup1\n      0x1f\n      lt\n      tag_40\n      jumpi\n      0x0100\n      dup1\n      dup4\n      sload\n      div\n      mul\n      dup4\n      mstore\n      swap2\n      0x20\n      add\n      swap2\n      jump(tag_39)\n    tag_40:\n      dup3\n      add\n      swap2\n      swap1\n      0x00\n      mstore\n      keccak256(0x00, 0x20)\n      swap1\n    tag_41:\n      dup2\n      sload\n      dup2\n      mstore\n      swap1\n      0x01\n      add\n      swap1\n      0x20\n      add\n      dup1\n      dup4\n      gt\n      tag_41\n      jumpi\n      dup3\n      swap1\n      sub\n      0x1f\n      and\n      dup3\n      add\n      swap2\n    tag_39:\n      pop\n      pop\n      pop\n      pop\n      pop\n      swap1\n      dup1\n      0x01\n      add\n      sload\n      swap1\n      pop\n      dup3\n      jump\t// out\n        /* \"Votingsystem.sol\":290:320  uint256 public totalCandidates */\n    tag_22:\n      sload(0x02)\n      dup2\n      jump\t// out\n        /* \"Votingsystem.sol\":745:1104  function castVote(uint256 _candidateId) public {... */\n    tag_27:\n        /* \"Votingsystem.sol\":826:827  0 */\n      0x00\n        /* \"Votingsystem.sol\":811:823  _candidateId */\n      dup2\n        /* \"Votingsystem.sol\":811:827  _candidateId > 0 */\n      gt\n        /* \"Votingsystem.sol\":811:862  _candidateId > 0 && _candidateId <= totalCandidates */\n      dup1\n      iszero\n      tag_43\n      jumpi\n      pop\n        /* \"Votingsystem.sol\":847:862  totalCandidates */\n      sload(0x02)\n        /* \"Votingsystem.sol\":831:843  _candidateId */\n      dup2\n        /* \"Votingsystem.sol\":831:862  _candidateId <= totalCandidates */\n      gt\n      iszero\n        /* \"Votingsystem.sol\":811:862  _candidateId > 0 && _candidateId <= totalCandidates */\n    tag_43:\n        /* \"Votingsystem.sol\":803:887  require(_candidateId > 0 && _candidateId <= totalCandidates, \"Invalid candidate ID\") */\n      tag_44\n      jumpi\n      mload(0x40)\n      0x08c379a000000000000000000000000000000000000000000000000000000000\n      dup2\n      mstore\n      0x04\n      add\n      tag_45\n      swap1\n      tag_46\n      jump\t// in\n    tag_45:\n      mload(0x40)\n      dup1\n      swap2\n      sub\n      swap1\n      revert\n    tag_44:\n        /* \"Votingsystem.sol\":907:915  hasVoted */\n      0x01\n        /* \"Votingsystem.sol\":907:927  hasVoted[msg.sender] */\n      0x00\n        /* \"Votingsystem.sol\":916:926  msg.sender */\n      caller\n        /* \"Votingsystem.sol\":907:927  hasVoted[msg.sender] */\n      0xffffffffffffffffffffffffffffffffffffffff\n      and\n      0xffffffffffffffffffffffffffffffffffffffff\n      and\n      dup2\n      mstore\n      0x20\n      add\n      swap1\n      dup2\n      mstore\n      0x20\n      add\n      0x00\n      keccak256\n      0x00\n      swap1\n      sload\n      swap1\n      0x0100\n      exp\n      swap1\n      div\n      0xff\n      and\n        /* \"Votingsystem.sol\":906:927  !hasVoted[msg.sender] */\n      iszero\n        /* \"Votingsystem.sol\":898:954  require(!hasVoted[msg.sender], \"You have already voted\") */\n      tag_47\n      jumpi\n      mload(0x40)\n      0x08c379a000000000000000000000000000000000000000000000000000000000\n      dup2\n      mstore\n      0x04\n      add\n      tag_48\n      swap1\n      tag_49\n      jump\t// in\n    tag_48:\n      mload(0x40)\n      dup1\n      swap2\n      sub\n      swap1\n      revert\n    tag_47:\n        /* \"Votingsystem.sol\":975:985  candidates */\n      0x00\n        /* \"Votingsystem.sol\":975:999  candidates[_candidateId] */\n      dup1\n        /* \"Votingsystem.sol\":986:998  _candidateId */\n      dup3\n        /* \"Votingsystem.sol\":975:999  candidates[_candidateId] */\n      dup2\n      mstore\n      0x20\n      add\n      swap1\n      dup2\n      mstore\n      0x20\n      add\n      0x00\n      keccak256\n        /* \"Votingsystem.sol\":975:1009  candidates[_candidateId].voteCount */\n      0x01\n      add\n      0x00\n        /* \"Votingsystem.sol\":975:1011  candidates[_candidateId].voteCount++ */\n      dup2\n      sload\n      dup1\n      swap3\n      swap2\n      swap1\n      tag_50\n      swap1\n      tag_51\n      jump\t// in\n    tag_50:\n      swap2\n      swap1\n      pop\n      sstore\n      pop\n        /* \"Votingsystem.sol\":1045:1049  true */\n      0x01\n        /* \"Votingsystem.sol\":1022:1030  hasVoted */\n      dup1\n        /* \"Votingsystem.sol\":1022:1042  hasVoted[msg.sender] */\n      0x00\n        /* \"Votingsystem.sol\":1031:1041  msg.sender */\n      caller\n        /* \"Votingsystem.sol\":1022:1042  hasVoted[msg.sender] */\n      0xffffffffffffffffffffffffffffffffffffffff\n      and\n      0xffffffffffffffffffffffffffffffffffffffff\n      and\n      dup2\n      mstore\n      0x20\n      add\n      swap1\n      dup2\n      mstore\n      0x20\n      add\n      0x00\n      keccak256\n      0x00\n        /* \"Votingsystem.sol\":1022:1049  hasVoted[msg.sender] = true */\n      0x0100\n      exp\n      dup2\n      sload\n      dup2\n      0xff\n      mul\n      not\n      and\n      swap1\n      dup4\n      iszero\n      iszero\n      mul\n      or\n      swap1\n      sstore\n      pop\n        /* \"Votingsystem.sol\":1083:1095  _candidateId */\n      dup1\n        /* \"Votingsystem.sol\":1071:1081  msg.sender */\n      caller\n        /* \"Votingsystem.sol\":1065:1096  Voted(msg.sender, _candidateId) */\n      0xffffffffffffffffffffffffffffffffffffffff\n      and\n      0x4d99b957a2bc29a30ebd96a7be8e68fe50a3c701db28a91436490b7d53870ca4\n      mload(0x40)\n      mload(0x40)\n      dup1\n      swap2\n      sub\n      swap1\n      log3\n        /* \"Votingsystem.sol\":745:1104  function castVote(uint256 _candidateId) public {... */\n      pop\n      jump\t// out\n        /* \"Votingsystem.sol\":533:733  function addCandidate(string memory _name) public {... */\n    tag_31:\n        /* \"Votingsystem.sol\":594:609  totalCandidates */\n      0x02\n      0x00\n        /* \"Votingsystem.sol\":594:611  totalCandidates++ */\n      dup2\n      sload\n      dup1\n      swap3\n      swap2\n      swap1\n      tag_53\n      swap1\n      tag_51\n      jump\t// in\n    tag_53:\n      swap2\n      swap1\n      pop\n      sstore\n      pop\n        /* \"Votingsystem.sol\":652:671  Candidate(_name, 0) */\n      mload(0x40)\n      dup1\n      0x40\n      add\n      0x40\n      mstore\n      dup1\n        /* \"Votingsystem.sol\":662:667  _name */\n      dup3\n        /* \"Votingsystem.sol\":652:671  Candidate(_name, 0) */\n      dup2\n      mstore\n      0x20\n      add\n        /* \"Votingsystem.sol\":669:670  0 */\n      0x00\n        /* \"Votingsystem.sol\":652:671  Candidate(_name, 0) */\n      dup2\n      mstore\n      pop\n        /* \"Votingsystem.sol\":622:632  candidates */\n      0x00\n        /* \"Votingsystem.sol\":622:649  candidates[totalCandidates] */\n      dup1\n        /* \"Votingsystem.sol\":633:648  totalCandidates */\n      sload(0x02)\n        /* \"Votingsystem.sol\":622:649  candidates[totalCandidates] */\n      dup2\n      mstore\n      0x20\n      add\n      swap1\n      dup2\n      mstore\n      0x20\n      add\n      0x00\n      keccak256\n        /* \"Votingsystem.sol\":622:671  candidates[totalCandidates] = Candidate(_name, 0) */\n      0x00\n      dup3\n      add\n      mload\n      dup2\n      0x00\n      add\n      swap1\n      dup2\n      tag_54\n      swap2\n      swap1\n      tag_55\n      jump\t// in\n    tag_54:\n      pop\n      0x20\n      dup3\n      add\n      mload\n      dup2\n      0x01\n      add\n      sstore\n      swap1\n      pop\n      pop\n        /* \"Votingsystem.sol\":702:717  totalCandidates */\n      sload(0x02)\n        /* \"Votingsystem.sol\":687:725  CandidateAdded(totalCandidates, _name) */\n      0xe83b2a43e7e82d975c8a0a6d2f045153c869e111136a34d1889ab7b598e396a3\n        /* \"Votingsystem.sol\":719:724  _name */\n      dup3\n        /* \"Votingsystem.sol\":687:725  CandidateAdded(totalCandidates, _name) */\n      mload(0x40)\n      tag_56\n      swap2\n      swap1\n      tag_57\n      jump\t// in\n    tag_56:\n      mload(0x40)\n      dup1\n      swap2\n      sub\n      swap1\n      log2\n        /* \"Votingsystem.sol\":533:733  function addCandidate(string memory _name) public {... */\n      pop\n      jump\t// out\n        /* \"Votingsystem.sol\":1116:1353  function queryVotes(uint256 _candidateId) public view returns (uint256) {... */\n    tag_34:\n        /* \"Votingsystem.sol\":1179:1186  uint256 */\n      0x00\n        /* \"Votingsystem.sol\":1222:1223  0 */\n      dup1\n        /* \"Votingsystem.sol\":1207:1219  _candidateId */\n      dup3\n        /* \"Votingsystem.sol\":1207:1223  _candidateId > 0 */\n      gt\n        /* \"Votingsystem.sol\":1207:1258  _candidateId > 0 && _candidateId <= totalCandidates */\n      dup1\n      iszero\n      tag_59\n      jumpi\n      pop\n        /* \"Votingsystem.sol\":1243:1258  totalCandidates */\n      sload(0x02)\n        /* \"Votingsystem.sol\":1227:1239  _candidateId */\n      dup3\n        /* \"Votingsystem.sol\":1227:1258  _candidateId <= totalCandidates */\n      gt\n      iszero\n        /* \"Votingsystem.sol\":1207:1258  _candidateId > 0 && _candidateId <= totalCandidates */\n    tag_59:\n        /* \"Votingsystem.sol\":1199:1283  require(_candidateId > 0 && _candidateId <= totalCandidates, \"Invalid candidate ID\") */\n      tag_60\n      jumpi\n      mload(0x40)\n      0x08c379a000000000000000000000000000000000000000000000000000000000\n      dup2\n      mstore\n      0x04\n      add\n      tag_61\n      swap1\n      tag_46\n      jump\t// in\n    tag_61:\n      mload(0x40)\n      dup1\n      swap2\n      sub\n      swap1\n      revert\n    tag_60:\n        /* \"Votingsystem.sol\":1311:1321  candidates */\n      0x00\n        /* \"Votingsystem.sol\":1311:1335  candidates[_candidateId] */\n      dup1\n        /* \"Votingsystem.sol\":1322:1334  _candidateId */\n      dup4\n        /* \"Votingsystem.sol\":1311:1335  candidates[_candidateId] */\n      dup2\n      mstore\n      0x20\n      add\n      swap1\n      dup2\n      mstore\n      0x20\n      add\n      0x00\n      keccak256\n        /* \"Votingsystem.sol\":1311:1345  candidates[_candidateId].voteCount */\n      0x01\n      add\n      sload\n        /* \"Votingsystem.sol\":1304:1345  return candidates[_candidateId].voteCount */\n      swap1\n      pop\n        /* \"Votingsystem.sol\":1116:1353  function queryVotes(uint256 _candidateId) public view returns (uint256) {... */\n      swap2\n      swap1\n      pop\n      jump\t// out\n        /* \"#utility.yul\":7:82   */\n    tag_62:\n        /* \"#utility.yul\":40:46   */\n      0x00\n        /* \"#utility.yul\":73:75   */\n      0x40\n        /* \"#utility.yul\":67:76   */\n      mload\n        /* \"#utility.yul\":57:76   */\n      swap1\n      pop\n        /* \"#utility.yul\":7:82   */\n      swap1\n      jump\t// out\n        /* \"#utility.yul\":88:205   */\n    tag_63:\n        /* \"#utility.yul\":197:198   */\n      0x00\n        /* \"#utility.yul\":194:195   */\n      dup1\n        /* \"#utility.yul\":187:199   */\n      revert\n        /* \"#utility.yul\":211:328   */\n    tag_64:\n        /* \"#utility.yul\":320:321   */\n      0x00\n        /* \"#utility.yul\":317:318   */\n      dup1\n        /* \"#utility.yul\":310:322   */\n      revert\n        /* \"#utility.yul\":334:460   */\n    tag_65:\n        /* \"#utility.yul\":371:378   */\n      0x00\n        /* \"#utility.yul\":411:453   */\n      0xffffffffffffffffffffffffffffffffffffffff\n        /* \"#utility.yul\":404:409   */\n      dup3\n        /* \"#utility.yul\":400:454   */\n      and\n        /* \"#utility.yul\":389:454   */\n      swap1\n      pop\n        /* \"#utility.yul\":334:460   */\n      swap2\n      swap1\n      pop\n      jump\t// out\n        /* \"#utility.yul\":466:562   */\n    tag_66:\n        /* \"#utility.yul\":503:510   */\n      0x00\n        /* \"#utility.yul\":532:556   */\n      tag_116\n        /* \"#utility.yul\":550:555   */\n      dup3\n        /* \"#utility.yul\":532:556   */\n      tag_65\n      jump\t// in\n    tag_116:\n        /* \"#utility.yul\":521:556   */\n      swap1\n      pop\n        /* \"#utility.yul\":466:562   */\n      swap2\n      swap1\n      pop\n      jump\t// out\n        /* \"#utility.yul\":568:690   */\n    tag_67:\n        /* \"#utility.yul\":641:665   */\n      tag_118\n        /* \"#utility.yul\":659:664   */\n      dup2\n        /* \"#utility.yul\":641:665   */\n      tag_66\n      jump\t// in\n    tag_118:\n        /* \"#utility.yul\":634:639   */\n      dup2\n        /* \"#utility.yul\":631:666   */\n      eq\n        /* \"#utility.yul\":621:684   */\n      tag_119\n      jumpi\n        /* \"#utility.yul\":680:681   */\n      0x00\n        /* \"#utility.yul\":677:678   */\n      dup1\n        /* \"#utility.yul\":670:682   */\n      revert\n        /* \"#utility.yul\":621:684   */\n    tag_119:\n        /* \"#utility.yul\":568:690   */\n      pop\n      jump\t// out\n        /* \"#utility.yul\":696:835   */\n    tag_68:\n        /* \"#utility.yul\":742:747   */\n      0x00\n        /* \"#utility.yul\":780:786   */\n      dup2\n        /* \"#utility.yul\":767:787   */\n      calldataload\n        /* \"#utility.yul\":758:787   */\n      swap1\n      pop\n        /* \"#utility.yul\":796:829   */\n      tag_121\n        /* \"#utility.yul\":823:828   */\n      dup2\n        /* \"#utility.yul\":796:829   */\n      tag_67\n      jump\t// in\n    tag_121:\n        /* \"#utility.yul\":696:835   */\n      swap3\n      swap2\n      pop\n      pop\n      jump\t// out\n        /* \"#utility.yul\":841:1170   */\n    tag_11:\n        /* \"#utility.yul\":900:906   */\n      0x00\n        /* \"#utility.yul\":949:951   */\n      0x20\n        /* \"#utility.yul\":937:946   */\n      dup3\n        /* \"#utility.yul\":928:935   */\n      dup5\n        /* \"#utility.yul\":924:947   */\n      sub\n        /* \"#utility.yul\":920:952   */\n      slt\n        /* \"#utility.yul\":917:1036   */\n      iszero\n      tag_123\n      jumpi\n        /* \"#utility.yul\":955:1034   */\n      tag_124\n      tag_63\n      jump\t// in\n    tag_124:\n        /* \"#utility.yul\":917:1036   */\n    tag_123:\n        /* \"#utility.yul\":1075:1076   */\n      0x00\n        /* \"#utility.yul\":1100:1153   */\n      tag_125\n        /* \"#utility.yul\":1145:1152   */\n      dup5\n        /* \"#utility.yul\":1136:1142   */\n      dup3\n        /* \"#utility.yul\":1125:1134   */\n      dup6\n        /* \"#utility.yul\":1121:1143   */\n      add\n        /* \"#utility.yul\":1100:1153   */\n      tag_68\n      jump\t// in\n    tag_125:\n        /* \"#utility.yul\":1090:1153   */\n      swap2\n      pop\n        /* \"#utility.yul\":1046:1163   */\n      pop\n        /* \"#utility.yul\":841:1170   */\n      swap3\n      swap2\n      pop\n      pop\n      jump\t// out\n        /* \"#utility.yul\":1176:1266   */\n    tag_69:\n        /* \"#utility.yul\":1210:1217   */\n      0x00\n        /* \"#utility.yul\":1253:1258   */\n      dup2\n        /* \"#utility.yul\":1246:1259   */\n      iszero\n        /* \"#utility.yul\":1239:1260   */\n      iszero\n        /* \"#utility.yul\":1228:1260   */\n      swap1\n      pop\n        /* \"#utility.yul\":1176:1266   */\n      swap2\n      swap1\n      pop\n      jump\t// out\n        /* \"#utility.yul\":1272:1381   */\n    tag_70:\n        /* \"#utility.yul\":1353:1374   */\n      tag_128\n        /* \"#utility.yul\":1368:1373   */\n      dup2\n        /* \"#utility.yul\":1353:1374   */\n      tag_69\n      jump\t// in\n    tag_128:\n        /* \"#utility.yul\":1348:1351   */\n      dup3\n        /* \"#utility.yul\":1341:1375   */\n      mstore\n        /* \"#utility.yul\":1272:1381   */\n      pop\n      pop\n      jump\t// out\n        /* \"#utility.yul\":1387:1597   */\n    tag_14:\n        /* \"#utility.yul\":1474:1478   */\n      0x00\n        /* \"#utility.yul\":1512:1514   */\n      0x20\n        /* \"#utility.yul\":1501:1510   */\n      dup3\n        /* \"#utility.yul\":1497:1515   */\n      add\n        /* \"#utility.yul\":1489:1515   */\n      swap1\n      pop\n        /* \"#utility.yul\":1525:1590   */\n      tag_130\n        /* \"#utility.yul\":1587:1588   */\n      0x00\n        /* \"#utility.yul\":1576:1585   */\n      dup4\n        /* \"#utility.yul\":1572:1589   */\n      add\n        /* \"#utility.yul\":1563:1569   */\n      dup5\n        /* \"#utility.yul\":1525:1590   */\n      tag_70\n      jump\t// in\n    tag_130:\n        /* \"#utility.yul\":1387:1597   */\n      swap3\n      swap2\n      pop\n      pop\n      jump\t// out\n        /* \"#utility.yul\":1603:1680   */\n    tag_71:\n        /* \"#utility.yul\":1640:1647   */\n      0x00\n        /* \"#utility.yul\":1669:1674   */\n      dup2\n        /* \"#utility.yul\":1658:1674   */\n      swap1\n      pop\n        /* \"#utility.yul\":1603:1680   */\n      swap2\n      swap1\n      pop\n      jump\t// out\n        /* \"#utility.yul\":1686:1808   */\n    tag_72:\n        /* \"#utility.yul\":1759:1783   */\n      tag_133\n        /* \"#utility.yul\":1777:1782   */\n      dup2\n        /* \"#utility.yul\":1759:1783   */\n      tag_71\n      jump\t// in\n    tag_133:\n        /* \"#utility.yul\":1752:1757   */\n      dup2\n        /* \"#utility.yul\":1749:1784   */\n      eq\n        /* \"#utility.yul\":1739:1802   */\n      tag_134\n      jumpi\n        /* \"#utility.yul\":1798:1799   */\n      0x00\n        /* \"#utility.yul\":1795:1796   */\n      dup1\n        /* \"#utility.yul\":1788:1800   */\n      revert\n        /* \"#utility.yul\":1739:1802   */\n    tag_134:\n        /* \"#utility.yul\":1686:1808   */\n      pop\n      jump\t// out\n        /* \"#utility.yul\":1814:1953   */\n    tag_73:\n        /* \"#utility.yul\":1860:1865   */\n      0x00\n        /* \"#utility.yul\":1898:1904   */\n      dup2\n        /* \"#utility.yul\":1885:1905   */\n      calldataload\n        /* \"#utility.yul\":1876:1905   */\n      swap1\n      pop\n        /* \"#utility.yul\":1914:1947   */\n      tag_136\n        /* \"#utility.yul\":1941:1946   */\n      dup2\n        /* \"#utility.yul\":1914:1947   */\n      tag_72\n      jump\t// in\n    tag_136:\n        /* \"#utility.yul\":1814:1953   */\n      swap3\n      swap2\n      pop\n      pop\n      jump\t// out\n        /* \"#utility.yul\":1959:2288   */\n    tag_17:\n        /* \"#utility.yul\":2018:2024   */\n      0x00\n        /* \"#utility.yul\":2067:2069   */\n      0x20\n        /* \"#utility.yul\":2055:2064   */\n      dup3\n        /* \"#utility.yul\":2046:2053   */\n      dup5\n        /* \"#utility.yul\":2042:2065   */\n      sub\n        /* \"#utility.yul\":2038:2070   */\n      slt\n        /* \"#utility.yul\":2035:2154   */\n      iszero\n      tag_138\n      jumpi\n        /* \"#utility.yul\":2073:2152   */\n      tag_139\n      tag_63\n      jump\t// in\n    tag_139:\n        /* \"#utility.yul\":2035:2154   */\n    tag_138:\n        /* \"#utility.yul\":2193:2194   */\n      0x00\n        /* \"#utility.yul\":2218:2271   */\n      tag_140\n        /* \"#utility.yul\":2263:2270   */\n      dup5\n        /* \"#utility.yul\":2254:2260   */\n      dup3\n        /* \"#utility.yul\":2243:2252   */\n      dup6\n        /* \"#utility.yul\":2239:2261   */\n      add\n        /* \"#utility.yul\":2218:2271   */\n      tag_73\n      jump\t// in\n    tag_140:\n        /* \"#utility.yul\":2208:2271   */\n      swap2\n      pop\n        /* \"#utility.yul\":2164:2281   */\n      pop\n        /* \"#utility.yul\":1959:2288   */\n      swap3\n      swap2\n      pop\n      pop\n      jump\t// out\n        /* \"#utility.yul\":2294:2393   */\n    tag_74:\n        /* \"#utility.yul\":2346:2352   */\n      0x00\n        /* \"#utility.yul\":2380:2385   */\n      dup2\n        /* \"#utility.yul\":2374:2386   */\n      mload\n        /* \"#utility.yul\":2364:2386   */\n      swap1\n      pop\n        /* \"#utility.yul\":2294:2393   */\n      swap2\n      swap1\n      pop\n      jump\t// out\n        /* \"#utility.yul\":2399:2568   */\n    tag_75:\n        /* \"#utility.yul\":2483:2494   */\n      0x00\n        /* \"#utility.yul\":2517:2523   */\n      dup3\n        /* \"#utility.yul\":2512:2515   */\n      dup3\n        /* \"#utility.yul\":2505:2524   */\n      mstore\n        /* \"#utility.yul\":2557:2561   */\n      0x20\n        /* \"#utility.yul\":2552:2555   */\n      dup3\n        /* \"#utility.yul\":2548:2562   */\n      add\n        /* \"#utility.yul\":2533:2562   */\n      swap1\n      pop\n        /* \"#utility.yul\":2399:2568   */\n      swap3\n      swap2\n      pop\n      pop\n      jump\t// out\n        /* \"#utility.yul\":2574:2820   */\n    tag_76:\n        /* \"#utility.yul\":2655:2656   */\n      0x00\n        /* \"#utility.yul\":2665:2778   */\n    tag_144:\n        /* \"#utility.yul\":2679:2685   */\n      dup4\n        /* \"#utility.yul\":2676:2677   */\n      dup2\n        /* \"#utility.yul\":2673:2686   */\n      lt\n        /* \"#utility.yul\":2665:2778   */\n      iszero\n      tag_146\n      jumpi\n        /* \"#utility.yul\":2764:2765   */\n      dup1\n        /* \"#utility.yul\":2759:2762   */\n      dup3\n        /* \"#utility.yul\":2755:2766   */\n      add\n        /* \"#utility.yul\":2749:2767   */\n      mload\n        /* \"#utility.yul\":2745:2746   */\n      dup2\n        /* \"#utility.yul\":2740:2743   */\n      dup5\n        /* \"#utility.yul\":2736:2747   */\n      add\n        /* \"#utility.yul\":2729:2768   */\n      mstore\n        /* \"#utility.yul\":2701:2703   */\n      0x20\n        /* \"#utility.yul\":2698:2699   */\n      dup2\n        /* \"#utility.yul\":2694:2704   */\n      add\n        /* \"#utility.yul\":2689:2704   */\n      swap1\n      pop\n        /* \"#utility.yul\":2665:2778   */\n      jump(tag_144)\n    tag_146:\n        /* \"#utility.yul\":2812:2813   */\n      0x00\n        /* \"#utility.yul\":2803:2809   */\n      dup5\n        /* \"#utility.yul\":2798:2801   */\n      dup5\n        /* \"#utility.yul\":2794:2810   */\n      add\n        /* \"#utility.yul\":2787:2814   */\n      mstore\n        /* \"#utility.yul\":2636:2820   */\n      pop\n        /* \"#utility.yul\":2574:2820   */\n      pop\n      pop\n      pop\n      jump\t// out\n        /* \"#utility.yul\":2826:2928   */\n    tag_77:\n        /* \"#utility.yul\":2867:2873   */\n      0x00\n        /* \"#utility.yul\":2918:2920   */\n      0x1f\n        /* \"#utility.yul\":2914:2921   */\n      not\n        /* \"#utility.yul\":2909:2911   */\n      0x1f\n        /* \"#utility.yul\":2902:2907   */\n      dup4\n        /* \"#utility.yul\":2898:2912   */\n      add\n        /* \"#utility.yul\":2894:2922   */\n      and\n        /* \"#utility.yul\":2884:2922   */\n      swap1\n      pop\n        /* \"#utility.yul\":2826:2928   */\n      swap2\n      swap1\n      pop\n      jump\t// out\n        /* \"#utility.yul\":2934:3311   */\n    tag_78:\n        /* \"#utility.yul\":3022:3025   */\n      0x00\n        /* \"#utility.yul\":3050:3089   */\n      tag_149\n        /* \"#utility.yul\":3083:3088   */\n      dup3\n        /* \"#utility.yul\":3050:3089   */\n      tag_74\n      jump\t// in\n    tag_149:\n        /* \"#utility.yul\":3105:3176   */\n      tag_150\n        /* \"#utility.yul\":3169:3175   */\n      dup2\n        /* \"#utility.yul\":3164:3167   */\n      dup6\n        /* \"#utility.yul\":3105:3176   */\n      tag_75\n      jump\t// in\n    tag_150:\n        /* \"#utility.yul\":3098:3176   */\n      swap4\n      pop\n        /* \"#utility.yul\":3185:3250   */\n      tag_151\n        /* \"#utility.yul\":3243:3249   */\n      dup2\n        /* \"#utility.yul\":3238:3241   */\n      dup6\n        /* \"#utility.yul\":3231:3235   */\n      0x20\n        /* \"#utility.yul\":3224:3229   */\n      dup7\n        /* \"#utility.yul\":3220:3236   */\n      add\n        /* \"#utility.yul\":3185:3250   */\n      tag_76\n      jump\t// in\n    tag_151:\n        /* \"#utility.yul\":3275:3304   */\n      tag_152\n        /* \"#utility.yul\":3297:3303   */\n      dup2\n        /* \"#utility.yul\":3275:3304   */\n      tag_77\n      jump\t// in\n    tag_152:\n        /* \"#utility.yul\":3270:3273   */\n      dup5\n        /* \"#utility.yul\":3266:3305   */\n      add\n        /* \"#utility.yul\":3259:3305   */\n      swap2\n      pop\n        /* \"#utility.yul\":3026:3311   */\n      pop\n        /* \"#utility.yul\":2934:3311   */\n      swap3\n      swap2\n      pop\n      pop\n      jump\t// out\n        /* \"#utility.yul\":3317:3435   */\n    tag_79:\n        /* \"#utility.yul\":3404:3428   */\n      tag_154\n        /* \"#utility.yul\":3422:3427   */\n      dup2\n        /* \"#utility.yul\":3404:3428   */\n      tag_71\n      jump\t// in\n    tag_154:\n        /* \"#utility.yul\":3399:3402   */\n      dup3\n        /* \"#utility.yul\":3392:3429   */\n      mstore\n        /* \"#utility.yul\":3317:3435   */\n      pop\n      pop\n      jump\t// out\n        /* \"#utility.yul\":3441:3864   */\n    tag_20:\n        /* \"#utility.yul\":3582:3586   */\n      0x00\n        /* \"#utility.yul\":3620:3622   */\n      0x40\n        /* \"#utility.yul\":3609:3618   */\n      dup3\n        /* \"#utility.yul\":3605:3623   */\n      add\n        /* \"#utility.yul\":3597:3623   */\n      swap1\n      pop\n        /* \"#utility.yul\":3669:3678   */\n      dup2\n        /* \"#utility.yul\":3663:3667   */\n      dup2\n        /* \"#utility.yul\":3659:3679   */\n      sub\n        /* \"#utility.yul\":3655:3656   */\n      0x00\n        /* \"#utility.yul\":3644:3653   */\n      dup4\n        /* \"#utility.yul\":3640:3657   */\n      add\n        /* \"#utility.yul\":3633:3680   */\n      mstore\n        /* \"#utility.yul\":3697:3775   */\n      tag_156\n        /* \"#utility.yul\":3770:3774   */\n      dup2\n        /* \"#utility.yul\":3761:3767   */\n      dup6\n        /* \"#utility.yul\":3697:3775   */\n      tag_78\n      jump\t// in\n    tag_156:\n        /* \"#utility.yul\":3689:3775   */\n      swap1\n      pop\n        /* \"#utility.yul\":3785:3857   */\n      tag_157\n        /* \"#utility.yul\":3853:3855   */\n      0x20\n        /* \"#utility.yul\":3842:3851   */\n      dup4\n        /* \"#utility.yul\":3838:3856   */\n      add\n        /* \"#utility.yul\":3829:3835   */\n      dup5\n        /* \"#utility.yul\":3785:3857   */\n      tag_79\n      jump\t// in\n    tag_157:\n        /* \"#utility.yul\":3441:3864   */\n      swap4\n      swap3\n      pop\n      pop\n      pop\n      jump\t// out\n        /* \"#utility.yul\":3870:4092   */\n    tag_24:\n        /* \"#utility.yul\":3963:3967   */\n      0x00\n        /* \"#utility.yul\":4001:4003   */\n      0x20\n        /* \"#utility.yul\":3990:3999   */\n      dup3\n        /* \"#utility.yul\":3986:4004   */\n      add\n        /* \"#utility.yul\":3978:4004   */\n      swap1\n      pop\n        /* \"#utility.yul\":4014:4085   */\n      tag_159\n        /* \"#utility.yul\":4082:4083   */\n      0x00\n        /* \"#utility.yul\":4071:4080   */\n      dup4\n        /* \"#utility.yul\":4067:4084   */\n      add\n        /* \"#utility.yul\":4058:4064   */\n      dup5\n        /* \"#utility.yul\":4014:4085   */\n      tag_79\n      jump\t// in\n    tag_159:\n        /* \"#utility.yul\":3870:4092   */\n      swap3\n      swap2\n      pop\n      pop\n      jump\t// out\n        /* \"#utility.yul\":4098:4215   */\n    tag_80:\n        /* \"#utility.yul\":4207:4208   */\n      0x00\n        /* \"#utility.yul\":4204:4205   */\n      dup1\n        /* \"#utility.yul\":4197:4209   */\n      revert\n        /* \"#utility.yul\":4221:4338   */\n    tag_81:\n        /* \"#utility.yul\":4330:4331   */\n      0x00\n        /* \"#utility.yul\":4327:4328   */\n      dup1\n        /* \"#utility.yul\":4320:4332   */\n      revert\n        /* \"#utility.yul\":4344:4524   */\n    tag_82:\n        /* \"#utility.yul\":4392:4469   */\n      0x4e487b7100000000000000000000000000000000000000000000000000000000\n        /* \"#utility.yul\":4389:4390   */\n      0x00\n        /* \"#utility.yul\":4382:4470   */\n      mstore\n        /* \"#utility.yul\":4489:4493   */\n      0x41\n        /* \"#utility.yul\":4486:4487   */\n      0x04\n        /* \"#utility.yul\":4479:4494   */\n      mstore\n        /* \"#utility.yul\":4513:4517   */\n      0x24\n        /* \"#utility.yul\":4510:4511   */\n      0x00\n        /* \"#utility.yul\":4503:4518   */\n      revert\n        /* \"#utility.yul\":4530:4811   */\n    tag_83:\n        /* \"#utility.yul\":4613:4640   */\n      tag_164\n        /* \"#utility.yul\":4635:4639   */\n      dup3\n        /* \"#utility.yul\":4613:4640   */\n      tag_77\n      jump\t// in\n    tag_164:\n        /* \"#utility.yul\":4605:4611   */\n      dup2\n        /* \"#utility.yul\":4601:4641   */\n      add\n        /* \"#utility.yul\":4743:4749   */\n      dup2\n        /* \"#utility.yul\":4731:4741   */\n      dup2\n        /* \"#utility.yul\":4728:4750   */\n      lt\n        /* \"#utility.yul\":4707:4725   */\n      0xffffffffffffffff\n        /* \"#utility.yul\":4695:4705   */\n      dup3\n        /* \"#utility.yul\":4692:4726   */\n      gt\n        /* \"#utility.yul\":4689:4751   */\n      or\n        /* \"#utility.yul\":4686:4774   */\n      iszero\n      tag_165\n      jumpi\n        /* \"#utility.yul\":4754:4772   */\n      tag_166\n      tag_82\n      jump\t// in\n    tag_166:\n        /* \"#utility.yul\":4686:4774   */\n    tag_165:\n        /* \"#utility.yul\":4794:4804   */\n      dup1\n        /* \"#utility.yul\":4790:4792   */\n      0x40\n        /* \"#utility.yul\":4783:4805   */\n      mstore\n        /* \"#utility.yul\":4573:4811   */\n      pop\n        /* \"#utility.yul\":4530:4811   */\n      pop\n      pop\n      jump\t// out\n        /* \"#utility.yul\":4817:4946   */\n    tag_84:\n        /* \"#utility.yul\":4851:4857   */\n      0x00\n        /* \"#utility.yul\":4878:4898   */\n      tag_168\n      tag_62\n      jump\t// in\n    tag_168:\n        /* \"#utility.yul\":4868:4898   */\n      swap1\n      pop\n        /* \"#utility.yul\":4907:4940   */\n      tag_169\n        /* \"#utility.yul\":4935:4939   */\n      dup3\n        /* \"#utility.yul\":4927:4933   */\n      dup3\n        /* \"#utility.yul\":4907:4940   */\n      tag_83\n      jump\t// in\n    tag_169:\n        /* \"#utility.yul\":4817:4946   */\n      swap2\n      swap1\n      pop\n      jump\t// out\n        /* \"#utility.yul\":4952:5260   */\n    tag_85:\n        /* \"#utility.yul\":5014:5018   */\n      0x00\n        /* \"#utility.yul\":5104:5122   */\n      0xffffffffffffffff\n        /* \"#utility.yul\":5096:5102   */\n      dup3\n        /* \"#utility.yul\":5093:5123   */\n      gt\n        /* \"#utility.yul\":5090:5146   */\n      iszero\n      tag_171\n      jumpi\n        /* \"#utility.yul\":5126:5144   */\n      tag_172\n      tag_82\n      jump\t// in\n    tag_172:\n        /* \"#utility.yul\":5090:5146   */\n    tag_171:\n        /* \"#utility.yul\":5164:5193   */\n      tag_173\n        /* \"#utility.yul\":5186:5192   */\n      dup3\n        /* \"#utility.yul\":5164:5193   */\n      tag_77\n      jump\t// in\n    tag_173:\n        /* \"#utility.yul\":5156:5193   */\n      swap1\n      pop\n        /* \"#utility.yul\":5248:5252   */\n      0x20\n        /* \"#utility.yul\":5242:5246   */\n      dup2\n        /* \"#utility.yul\":5238:5253   */\n      add\n        /* \"#utility.yul\":5230:5253   */\n      swap1\n      pop\n        /* \"#utility.yul\":4952:5260   */\n      swap2\n      swap1\n      pop\n      jump\t// out\n        /* \"#utility.yul\":5266:5412   */\n    tag_86:\n        /* \"#utility.yul\":5363:5369   */\n      dup3\n        /* \"#utility.yul\":5358:5361   */\n      dup2\n        /* \"#utility.yul\":5353:5356   */\n      dup4\n        /* \"#utility.yul\":5340:5370   */\n      calldatacopy\n        /* \"#utility.yul\":5404:5405   */\n      0x00\n        /* \"#utility.yul\":5395:5401   */\n      dup4\n        /* \"#utility.yul\":5390:5393   */\n      dup4\n        /* \"#utility.yul\":5386:5402   */\n      add\n        /* \"#utility.yul\":5379:5406   */\n      mstore\n        /* \"#utility.yul\":5266:5412   */\n      pop\n      pop\n      pop\n      jump\t// out\n        /* \"#utility.yul\":5418:5843   */\n    tag_87:\n        /* \"#utility.yul\":5496:5501   */\n      0x00\n        /* \"#utility.yul\":5521:5587   */\n      tag_176\n        /* \"#utility.yul\":5537:5586   */\n      tag_177\n        /* \"#utility.yul\":5579:5585   */\n      dup5\n        /* \"#utility.yul\":5537:5586   */\n      tag_85\n      jump\t// in\n    tag_177:\n        /* \"#utility.yul\":5521:5587   */\n      tag_84\n      jump\t// in\n    tag_176:\n        /* \"#utility.yul\":5512:5587   */\n      swap1\n      pop\n        /* \"#utility.yul\":5610:5616   */\n      dup3\n        /* \"#utility.yul\":5603:5608   */\n      dup2\n        /* \"#utility.yul\":5596:5617   */\n      mstore\n        /* \"#utility.yul\":5648:5652   */\n      0x20\n        /* \"#utility.yul\":5641:5646   */\n      dup2\n        /* \"#utility.yul\":5637:5653   */\n      add\n        /* \"#utility.yul\":5686:5689   */\n      dup5\n        /* \"#utility.yul\":5677:5683   */\n      dup5\n        /* \"#utility.yul\":5672:5675   */\n      dup5\n        /* \"#utility.yul\":5668:5684   */\n      add\n        /* \"#utility.yul\":5665:5690   */\n      gt\n        /* \"#utility.yul\":5662:5774   */\n      iszero\n      tag_178\n      jumpi\n        /* \"#utility.yul\":5693:5772   */\n      tag_179\n      tag_81\n      jump\t// in\n    tag_179:\n        /* \"#utility.yul\":5662:5774   */\n    tag_178:\n        /* \"#utility.yul\":5783:5837   */\n      tag_180\n        /* \"#utility.yul\":5830:5836   */\n      dup5\n        /* \"#utility.yul\":5825:5828   */\n      dup3\n        /* \"#utility.yul\":5820:5823   */\n      dup6\n        /* \"#utility.yul\":5783:5837   */\n      tag_86\n      jump\t// in\n    tag_180:\n        /* \"#utility.yul\":5502:5843   */\n      pop\n        /* \"#utility.yul\":5418:5843   */\n      swap4\n      swap3\n      pop\n      pop\n      pop\n      jump\t// out\n        /* \"#utility.yul\":5863:6203   */\n    tag_88:\n        /* \"#utility.yul\":5919:5924   */\n      0x00\n        /* \"#utility.yul\":5968:5971   */\n      dup3\n        /* \"#utility.yul\":5961:5965   */\n      0x1f\n        /* \"#utility.yul\":5953:5959   */\n      dup4\n        /* \"#utility.yul\":5949:5966   */\n      add\n        /* \"#utility.yul\":5945:5972   */\n      slt\n        /* \"#utility.yul\":5935:6057   */\n      tag_182\n      jumpi\n        /* \"#utility.yul\":5976:6055   */\n      tag_183\n      tag_80\n      jump\t// in\n    tag_183:\n        /* \"#utility.yul\":5935:6057   */\n    tag_182:\n        /* \"#utility.yul\":6093:6099   */\n      dup2\n        /* \"#utility.yul\":6080:6100   */\n      calldataload\n        /* \"#utility.yul\":6118:6197   */\n      tag_184\n        /* \"#utility.yul\":6193:6196   */\n      dup5\n        /* \"#utility.yul\":6185:6191   */\n      dup3\n        /* \"#utility.yul\":6178:6182   */\n      0x20\n        /* \"#utility.yul\":6170:6176   */\n      dup7\n        /* \"#utility.yul\":6166:6183   */\n      add\n        /* \"#utility.yul\":6118:6197   */\n      tag_87\n      jump\t// in\n    tag_184:\n        /* \"#utility.yul\":6109:6197   */\n      swap2\n      pop\n        /* \"#utility.yul\":5925:6203   */\n      pop\n        /* \"#utility.yul\":5863:6203   */\n      swap3\n      swap2\n      pop\n      pop\n      jump\t// out\n        /* \"#utility.yul\":6209:6718   */\n    tag_30:\n        /* \"#utility.yul\":6278:6284   */\n      0x00\n        /* \"#utility.yul\":6327:6329   */\n      0x20\n        /* \"#utility.yul\":6315:6324   */\n      dup3\n        /* \"#utility.yul\":6306:6313   */\n      dup5\n        /* \"#utility.yul\":6302:6325   */\n      sub\n        /* \"#utility.yul\":6298:6330   */\n      slt\n        /* \"#utility.yul\":6295:6414   */\n      iszero\n      tag_186\n      jumpi\n        /* \"#utility.yul\":6333:6412   */\n      tag_187\n      tag_63\n      jump\t// in\n    tag_187:\n        /* \"#utility.yul\":6295:6414   */\n    tag_186:\n        /* \"#utility.yul\":6481:6482   */\n      0x00\n        /* \"#utility.yul\":6470:6479   */\n      dup3\n        /* \"#utility.yul\":6466:6483   */\n      add\n        /* \"#utility.yul\":6453:6484   */\n      calldataload\n        /* \"#utility.yul\":6511:6529   */\n      0xffffffffffffffff\n        /* \"#utility.yul\":6503:6509   */\n      dup2\n        /* \"#utility.yul\":6500:6530   */\n      gt\n        /* \"#utility.yul\":6497:6614   */\n      iszero\n      tag_188\n      jumpi\n        /* \"#utility.yul\":6533:6612   */\n      tag_189\n      tag_64\n      jump\t// in\n    tag_189:\n        /* \"#utility.yul\":6497:6614   */\n    tag_188:\n        /* \"#utility.yul\":6638:6701   */\n      tag_190\n        /* \"#utility.yul\":6693:6700   */\n      dup5\n        /* \"#utility.yul\":6684:6690   */\n      dup3\n        /* \"#utility.yul\":6673:6682   */\n      dup6\n        /* \"#utility.yul\":6669:6691   */\n      add\n        /* \"#utility.yul\":6638:6701   */\n      tag_88\n      jump\t// in\n    tag_190:\n        /* \"#utility.yul\":6628:6701   */\n      swap2\n      pop\n        /* \"#utility.yul\":6424:6711   */\n      pop\n        /* \"#utility.yul\":6209:6718   */\n      swap3\n      swap2\n      pop\n      pop\n      jump\t// out\n        /* \"#utility.yul\":6724:6904   */\n    tag_89:\n        /* \"#utility.yul\":6772:6849   */\n      0x4e487b7100000000000000000000000000000000000000000000000000000000\n        /* \"#utility.yul\":6769:6770   */\n      0x00\n        /* \"#utility.yul\":6762:6850   */\n      mstore\n        /* \"#utility.yul\":6869:6873   */\n      0x22\n        /* \"#utility.yul\":6866:6867   */\n      0x04\n        /* \"#utility.yul\":6859:6874   */\n      mstore\n        /* \"#utility.yul\":6893:6897   */\n      0x24\n        /* \"#utility.yul\":6890:6891   */\n      0x00\n        /* \"#utility.yul\":6883:6898   */\n      revert\n        /* \"#utility.yul\":6910:7230   */\n    tag_37:\n        /* \"#utility.yul\":6954:6960   */\n      0x00\n        /* \"#utility.yul\":6991:6992   */\n      0x02\n        /* \"#utility.yul\":6985:6989   */\n      dup3\n        /* \"#utility.yul\":6981:6993   */\n      div\n        /* \"#utility.yul\":6971:6993   */\n      swap1\n      pop\n        /* \"#utility.yul\":7038:7039   */\n      0x01\n        /* \"#utility.yul\":7032:7036   */\n      dup3\n        /* \"#utility.yul\":7028:7040   */\n      and\n        /* \"#utility.yul\":7059:7077   */\n      dup1\n        /* \"#utility.yul\":7049:7130   */\n      tag_193\n      jumpi\n        /* \"#utility.yul\":7115:7119   */\n      0x7f\n        /* \"#utility.yul\":7107:7113   */\n      dup3\n        /* \"#utility.yul\":7103:7120   */\n      and\n        /* \"#utility.yul\":7093:7120   */\n      swap2\n      pop\n        /* \"#utility.yul\":7049:7130   */\n    tag_193:\n        /* \"#utility.yul\":7177:7179   */\n      0x20\n        /* \"#utility.yul\":7169:7175   */\n      dup3\n        /* \"#utility.yul\":7166:7180   */\n      lt\n        /* \"#utility.yul\":7146:7164   */\n      dup2\n        /* \"#utility.yul\":7143:7181   */\n      sub\n        /* \"#utility.yul\":7140:7224   */\n      tag_194\n      jumpi\n        /* \"#utility.yul\":7196:7214   */\n      tag_195\n      tag_89\n      jump\t// in\n    tag_195:\n        /* \"#utility.yul\":7140:7224   */\n    tag_194:\n        /* \"#utility.yul\":6961:7230   */\n      pop\n        /* \"#utility.yul\":6910:7230   */\n      swap2\n      swap1\n      pop\n      jump\t// out\n        /* \"#utility.yul\":7236:7406   */\n    tag_90:\n        /* \"#utility.yul\":7376:7398   */\n      0x496e76616c69642063616e646964617465204944000000000000000000000000\n        /* \"#utility.yul\":7372:7373   */\n      0x00\n        /* \"#utility.yul\":7364:7370   */\n      dup3\n        /* \"#utility.yul\":7360:7374   */\n      add\n        /* \"#utility.yul\":7353:7399   */\n      mstore\n        /* \"#utility.yul\":7236:7406   */\n      pop\n      jump\t// out\n        /* \"#utility.yul\":7412:7778   */\n    tag_91:\n        /* \"#utility.yul\":7554:7557   */\n      0x00\n        /* \"#utility.yul\":7575:7642   */\n      tag_198\n        /* \"#utility.yul\":7639:7641   */\n      0x14\n        /* \"#utility.yul\":7634:7637   */\n      dup4\n        /* \"#utility.yul\":7575:7642   */\n      tag_75\n      jump\t// in\n    tag_198:\n        /* \"#utility.yul\":7568:7642   */\n      swap2\n      pop\n        /* \"#utility.yul\":7651:7744   */\n      tag_199\n        /* \"#utility.yul\":7740:7743   */\n      dup3\n        /* \"#utility.yul\":7651:7744   */\n      tag_90\n      jump\t// in\n    tag_199:\n        /* \"#utility.yul\":7769:7771   */\n      0x20\n        /* \"#utility.yul\":7764:7767   */\n      dup3\n        /* \"#utility.yul\":7760:7772   */\n      add\n        /* \"#utility.yul\":7753:7772   */\n      swap1\n      pop\n        /* \"#utility.yul\":7412:7778   */\n      swap2\n      swap1\n      pop\n      jump\t// out\n        /* \"#utility.yul\":7784:8203   */\n    tag_46:\n        /* \"#utility.yul\":7950:7954   */\n      0x00\n        /* \"#utility.yul\":7988:7990   */\n      0x20\n        /* \"#utility.yul\":7977:7986   */\n      dup3\n        /* \"#utility.yul\":7973:7991   */\n      add\n        /* \"#utility.yul\":7965:7991   */\n      swap1\n      pop\n        /* \"#utility.yul\":8037:8046   */\n      dup2\n        /* \"#utility.yul\":8031:8035   */\n      dup2\n        /* \"#utility.yul\":8027:8047   */\n      sub\n        /* \"#utility.yul\":8023:8024   */\n      0x00\n        /* \"#utility.yul\":8012:8021   */\n      dup4\n        /* \"#utility.yul\":8008:8025   */\n      add\n        /* \"#utility.yul\":8001:8048   */\n      mstore\n        /* \"#utility.yul\":8065:8196   */\n      tag_201\n        /* \"#utility.yul\":8191:8195   */\n      dup2\n        /* \"#utility.yul\":8065:8196   */\n      tag_91\n      jump\t// in\n    tag_201:\n        /* \"#utility.yul\":8057:8196   */\n      swap1\n      pop\n        /* \"#utility.yul\":7784:8203   */\n      swap2\n      swap1\n      pop\n      jump\t// out\n        /* \"#utility.yul\":8209:8381   */\n    tag_92:\n        /* \"#utility.yul\":8349:8373   */\n      0x596f75206861766520616c726561647920766f74656400000000000000000000\n        /* \"#utility.yul\":8345:8346   */\n      0x00\n        /* \"#utility.yul\":8337:8343   */\n      dup3\n        /* \"#utility.yul\":8333:8347   */\n      add\n        /* \"#utility.yul\":8326:8374   */\n      mstore\n        /* \"#utility.yul\":8209:8381   */\n      pop\n      jump\t// out\n        /* \"#utility.yul\":8387:8753   */\n    tag_93:\n        /* \"#utility.yul\":8529:8532   */\n      0x00\n        /* \"#utility.yul\":8550:8617   */\n      tag_204\n        /* \"#utility.yul\":8614:8616   */\n      0x16\n        /* \"#utility.yul\":8609:8612   */\n      dup4\n        /* \"#utility.yul\":8550:8617   */\n      tag_75\n      jump\t// in\n    tag_204:\n        /* \"#utility.yul\":8543:8617   */\n      swap2\n      pop\n        /* \"#utility.yul\":8626:8719   */\n      tag_205\n        /* \"#utility.yul\":8715:8718   */\n      dup3\n        /* \"#utility.yul\":8626:8719   */\n      tag_92\n      jump\t// in\n    tag_205:\n        /* \"#utility.yul\":8744:8746   */\n      0x20\n        /* \"#utility.yul\":8739:8742   */\n      dup3\n        /* \"#utility.yul\":8735:8747   */\n      add\n        /* \"#utility.yul\":8728:8747   */\n      swap1\n      pop\n        /* \"#utility.yul\":8387:8753   */\n      swap2\n      swap1\n      pop\n      jump\t// out\n        /* \"#utility.yul\":8759:9178   */\n    tag_49:\n        /* \"#utility.yul\":8925:8929   */\n      0x00\n        /* \"#utility.yul\":8963:8965   */\n      0x20\n        /* \"#utility.yul\":8952:8961   */\n      dup3\n        /* \"#utility.yul\":8948:8966   */\n      add\n        /* \"#utility.yul\":8940:8966   */\n      swap1\n      pop\n        /* \"#utility.yul\":9012:9021   */\n      dup2\n        /* \"#utility.yul\":9006:9010   */\n      dup2\n        /* \"#utility.yul\":9002:9022   */\n      sub\n        /* \"#utility.yul\":8998:8999   */\n      0x00\n        /* \"#utility.yul\":8987:8996   */\n      dup4\n        /* \"#utility.yul\":8983:9000   */\n      add\n        /* \"#utility.yul\":8976:9023   */\n      mstore\n        /* \"#utility.yul\":9040:9171   */\n      tag_207\n        /* \"#utility.yul\":9166:9170   */\n      dup2\n        /* \"#utility.yul\":9040:9171   */\n      tag_93\n      jump\t// in\n    tag_207:\n        /* \"#utility.yul\":9032:9171   */\n      swap1\n      pop\n        /* \"#utility.yul\":8759:9178   */\n      swap2\n      swap1\n      pop\n      jump\t// out\n        /* \"#utility.yul\":9184:9364   */\n    tag_94:\n        /* \"#utility.yul\":9232:9309   */\n      0x4e487b7100000000000000000000000000000000000000000000000000000000\n        /* \"#utility.yul\":9229:9230   */\n      0x00\n        /* \"#utility.yul\":9222:9310   */\n      mstore\n        /* \"#utility.yul\":9329:9333   */\n      0x11\n        /* \"#utility.yul\":9326:9327   */\n      0x04\n        /* \"#utility.yul\":9319:9334   */\n      mstore\n        /* \"#utility.yul\":9353:9357   */\n      0x24\n        /* \"#utility.yul\":9350:9351   */\n      0x00\n        /* \"#utility.yul\":9343:9358   */\n      revert\n        /* \"#utility.yul\":9370:9603   */\n    tag_51:\n        /* \"#utility.yul\":9409:9412   */\n      0x00\n        /* \"#utility.yul\":9432:9456   */\n      tag_210\n        /* \"#utility.yul\":9450:9455   */\n      dup3\n        /* \"#utility.yul\":9432:9456   */\n      tag_71\n      jump\t// in\n    tag_210:\n        /* \"#utility.yul\":9423:9456   */\n      swap2\n      pop\n        /* \"#utility.yul\":9478:9544   */\n      0xffffffffffffffffffffffffffffffffffffffffffffffffffffffffffffffff\n        /* \"#utility.yul\":9471:9476   */\n      dup3\n        /* \"#utility.yul\":9468:9545   */\n      sub\n        /* \"#utility.yul\":9465:9568   */\n      tag_211\n      jumpi\n        /* \"#utility.yul\":9548:9566   */\n      tag_212\n      tag_94\n      jump\t// in\n    tag_212:\n        /* \"#utility.yul\":9465:9568   */\n    tag_211:\n        /* \"#utility.yul\":9595:9596   */\n      0x01\n        /* \"#utility.yul\":9588:9593   */\n      dup3\n        /* \"#utility.yul\":9584:9597   */\n      add\n        /* \"#utility.yul\":9577:9597   */\n      swap1\n      pop\n        /* \"#utility.yul\":9370:9603   */\n      swap2\n      swap1\n      pop\n      jump\t// out\n        /* \"#utility.yul\":9609:9750   */\n    tag_95:\n        /* \"#utility.yul\":9658:9662   */\n      0x00\n        /* \"#utility.yul\":9681:9684   */\n      dup2\n        /* \"#utility.yul\":9673:9684   */\n      swap1\n      pop\n        /* \"#utility.yul\":9704:9707   */\n      dup2\n        /* \"#utility.yul\":9701:9702   */\n      0x00\n        /* \"#utility.yul\":9694:9708   */\n      mstore\n        /* \"#utility.yul\":9738:9742   */\n      0x20\n        /* \"#utility.yul\":9735:9736   */\n      0x00\n        /* \"#utility.yul\":9725:9743   */\n      keccak256\n        /* \"#utility.yul\":9717:9743   */\n      swap1\n      pop\n        /* \"#utility.yul\":9609:9750   */\n      swap2\n      swap1\n      pop\n      jump\t// out\n        /* \"#utility.yul\":9756:9849   */\n    tag_96:\n        /* \"#utility.yul\":9793:9799   */\n      0x00\n        /* \"#utility.yul\":9840:9842   */\n      0x20\n        /* \"#utility.yul\":9835:9837   */\n      0x1f\n        /* \"#utility.yul\":9828:9833   */\n      dup4\n        /* \"#utility.yul\":9824:9838   */\n      add\n        /* \"#utility.yul\":9820:9843   */\n      div\n        /* \"#utility.yul\":9810:9843   */\n      swap1\n      pop\n        /* \"#utility.yul\":9756:9849   */\n      swap2\n      swap1\n      pop\n      jump\t// out\n        /* \"#utility.yul\":9855:9962   */\n    tag_97:\n        /* \"#utility.yul\":9899:9907   */\n      0x00\n        /* \"#utility.yul\":9949:9954   */\n      dup3\n        /* \"#utility.yul\":9943:9947   */\n      dup3\n        /* \"#utility.yul\":9939:9955   */\n      shl\n        /* \"#utility.yul\":9918:9955   */\n      swap1\n      pop\n        /* \"#utility.yul\":9855:9962   */\n      swap3\n      swap2\n      pop\n      pop\n      jump\t// out\n        /* \"#utility.yul\":9968:10361   */\n    tag_98:\n        /* \"#utility.yul\":10037:10043   */\n      0x00\n        /* \"#utility.yul\":10087:10088   */\n      0x08\n        /* \"#utility.yul\":10075:10085   */\n      dup4\n        /* \"#utility.yul\":10071:10089   */\n      mul\n        /* \"#utility.yul\":10110:10207   */\n      tag_217\n        /* \"#utility.yul\":10140:10206   */\n      0xffffffffffffffffffffffffffffffffffffffffffffffffffffffffffffffff\n        /* \"#utility.yul\":10129:10138   */\n      dup3\n        /* \"#utility.yul\":10110:10207   */\n      tag_97\n      jump\t// in\n    tag_217:\n        /* \"#utility.yul\":10228:10267   */\n      tag_218\n        /* \"#utility.yul\":10258:10266   */\n      dup7\n        /* \"#utility.yul\":10247:10256   */\n      dup4\n        /* \"#utility.yul\":10228:10267   */\n      tag_97\n      jump\t// in\n    tag_218:\n        /* \"#utility.yul\":10216:10267   */\n      swap6\n      pop\n        /* \"#utility.yul\":10300:10304   */\n      dup1\n        /* \"#utility.yul\":10296:10305   */\n      not\n        /* \"#utility.yul\":10289:10294   */\n      dup5\n        /* \"#utility.yul\":10285:10306   */\n      and\n        /* \"#utility.yul\":10276:10306   */\n      swap4\n      pop\n        /* \"#utility.yul\":10349:10353   */\n      dup1\n        /* \"#utility.yul\":10339:10347   */\n      dup7\n        /* \"#utility.yul\":10335:10354   */\n      and\n        /* \"#utility.yul\":10328:10333   */\n      dup5\n        /* \"#utility.yul\":10325:10355   */\n      or\n        /* \"#utility.yul\":10315:10355   */\n      swap3\n      pop\n        /* \"#utility.yul\":10044:10361   */\n      pop\n      pop\n        /* \"#utility.yul\":9968:10361   */\n      swap4\n      swap3\n      pop\n      pop\n      pop\n      jump\t// out\n        /* \"#utility.yul\":10367:10427   */\n    tag_99:\n        /* \"#utility.yul\":10395:10398   */\n      0x00\n        /* \"#utility.yul\":10416:10421   */\n      dup2\n        /* \"#utility.yul\":10409:10421   */\n      swap1\n      pop\n        /* \"#utility.yul\":10367:10427   */\n      swap2\n      swap1\n      pop\n      jump\t// out\n        /* \"#utility.yul\":10433:10575   */\n    tag_100:\n        /* \"#utility.yul\":10483:10492   */\n      0x00\n        /* \"#utility.yul\":10516:10569   */\n      tag_221\n        /* \"#utility.yul\":10534:10568   */\n      tag_222\n        /* \"#utility.yul\":10543:10567   */\n      tag_223\n        /* \"#utility.yul\":10561:10566   */\n      dup5\n        /* \"#utility.yul\":10543:10567   */\n      tag_71\n      jump\t// in\n    tag_223:\n        /* \"#utility.yul\":10534:10568   */\n      tag_99\n      jump\t// in\n    tag_222:\n        /* \"#utility.yul\":10516:10569   */\n      tag_71\n      jump\t// in\n    tag_221:\n        /* \"#utility.yul\":10503:10569   */\n      swap1\n      pop\n        /* \"#utility.yul\":10433:10575   */\n      swap2\n      swap1\n      pop\n      jump\t// out\n        /* \"#utility.yul\":10581:10656   */\n    tag_101:\n        /* \"#utility.yul\":10624:10627   */\n      0x00\n        /* \"#utility.yul\":10645:10650   */\n      dup2\n        /* \"#utility.yul\":10638:10650   */\n      swap1\n      pop\n        /* \"#utility.yul\":10581:10656   */\n      swap2\n      swap1\n      pop\n      jump\t// out\n        /* \"#utility.yul\":10662:10931   */\n    tag_102:\n        /* \"#utility.yul\":10772:10811   */\n      tag_226\n        /* \"#utility.yul\":10803:10810   */\n      dup4\n        /* \"#utility.yul\":10772:10811   */\n      tag_100\n      jump\t// in\n    tag_226:\n        /* \"#utility.yul\":10833:10924   */\n      tag_227\n        /* \"#utility.yul\":10882:10923   */\n      tag_228\n        /* \"#utility.yul\":10906:10922   */\n      dup3\n        /* \"#utility.yul\":10882:10923   */\n      tag_101\n      jump\t// in\n    tag_228:\n        /* \"#utility.yul\":10874:10880   */\n      dup5\n        /* \"#utility.yul\":10867:10871   */\n      dup5\n        /* \"#utility.yul\":10861:10872   */\n      sload\n        /* \"#utility.yul\":10833:10924   */\n      tag_98\n      jump\t// in\n    tag_227:\n        /* \"#utility.yul\":10827:10831   */\n      dup3\n        /* \"#utility.yul\":10820:10925   */\n      sstore\n        /* \"#utility.yul\":10738:10931   */\n      pop\n        /* \"#utility.yul\":10662:10931   */\n      pop\n      pop\n      pop\n      jump\t// out\n        /* \"#utility.yul\":10937:11010   */\n    tag_103:\n        /* \"#utility.yul\":10982:10985   */\n      0x00\n        /* \"#utility.yul\":10937:11010   */\n      swap1\n      jump\t// out\n        /* \"#utility.yul\":11016:11205   */\n    tag_104:\n        /* \"#utility.yul\":11093:11125   */\n      tag_231\n      tag_103\n      jump\t// in\n    tag_231:\n        /* \"#utility.yul\":11134:11199   */\n      tag_232\n        /* \"#utility.yul\":11192:11198   */\n      dup2\n        /* \"#utility.yul\":11184:11190   */\n      dup5\n        /* \"#utility.yul\":11178:11182   */\n      dup5\n        /* \"#utility.yul\":11134:11199   */\n      tag_102\n      jump\t// in\n    tag_232:\n        /* \"#utility.yul\":11069:11205   */\n      pop\n        /* \"#utility.yul\":11016:11205   */\n      pop\n      pop\n      jump\t// out\n        /* \"#utility.yul\":11211:11397   */\n    tag_105:\n        /* \"#utility.yul\":11271:11391   */\n    tag_234:\n        /* \"#utility.yul\":11288:11291   */\n      dup2\n        /* \"#utility.yul\":11281:11286   */\n      dup2\n        /* \"#utility.yul\":11278:11292   */\n      lt\n        /* \"#utility.yul\":11271:11391   */\n      iszero\n      tag_236\n      jumpi\n        /* \"#utility.yul\":11342:11381   */\n      tag_237\n        /* \"#utility.yul\":11379:11380   */\n      0x00\n        /* \"#utility.yul\":11372:11377   */\n      dup3\n        /* \"#utility.yul\":11342:11381   */\n      tag_104\n      jump\t// in\n    tag_237:\n        /* \"#utility.yul\":11315:11316   */\n      0x01\n        /* \"#utility.yul\":11308:11313   */\n      dup2\n        /* \"#utility.yul\":11304:11317   */\n      add\n        /* \"#utility.yul\":11295:11317   */\n      swap1\n      pop\n        /* \"#utility.yul\":11271:11391   */\n      jump(tag_234)\n    tag_236:\n        /* \"#utility.yul\":11211:11397   */\n      pop\n      pop\n      jump\t// out\n        /* \"#utility.yul\":11403:11946   */\n    tag_106:\n        /* \"#utility.yul\":11504:11506   */\n      0x1f\n        /* \"#utility.yul\":11499:11502   */\n      dup3\n        /* \"#utility.yul\":11496:11507   */\n      gt\n        /* \"#utility.yul\":11493:11939   */\n      iszero\n      tag_239\n      jumpi\n        /* \"#utility.yul\":11538:11576   */\n      tag_240\n        /* \"#utility.yul\":11570:11575   */\n      dup2\n        /* \"#utility.yul\":11538:11576   */\n      tag_95\n      jump\t// in\n    tag_240:\n        /* \"#utility.yul\":11622:11651   */\n      tag_241\n        /* \"#utility.yul\":11640:11650   */\n      dup5\n        /* \"#utility.yul\":11622:11651   */\n      tag_96\n      jump\t// in\n    tag_241:\n        /* \"#utility.yul\":11612:11620   */\n      dup2\n        /* \"#utility.yul\":11608:11652   */\n      add\n        /* \"#utility.yul\":11805:11807   */\n      0x20\n        /* \"#utility.yul\":11793:11803   */\n      dup6\n        /* \"#utility.yul\":11790:11808   */\n      lt\n        /* \"#utility.yul\":11787:11836   */\n      iszero\n      tag_242\n      jumpi\n        /* \"#utility.yul\":11826:11834   */\n      dup2\n        /* \"#utility.yul\":11811:11834   */\n      swap1\n      pop\n        /* \"#utility.yul\":11787:11836   */\n    tag_242:\n        /* \"#utility.yul\":11849:11929   */\n      tag_243\n        /* \"#utility.yul\":11905:11927   */\n      tag_244\n        /* \"#utility.yul\":11923:11926   */\n      dup6\n        /* \"#utility.yul\":11905:11927   */\n      tag_96\n      jump\t// in\n    tag_244:\n        /* \"#utility.yul\":11895:11903   */\n      dup4\n        /* \"#utility.yul\":11891:11928   */\n      add\n        /* \"#utility.yul\":11878:11889   */\n      dup3\n        /* \"#utility.yul\":11849:11929   */\n      tag_105\n      jump\t// in\n    tag_243:\n        /* \"#utility.yul\":11508:11939   */\n      pop\n      pop\n        /* \"#utility.yul\":11493:11939   */\n    tag_239:\n        /* \"#utility.yul\":11403:11946   */\n      pop\n      pop\n      pop\n      jump\t// out\n        /* \"#utility.yul\":11952:12069   */\n    tag_107:\n        /* \"#utility.yul\":12006:12014   */\n      0x00\n        /* \"#utility.yul\":12056:12061   */\n      dup3\n        /* \"#utility.yul\":12050:12054   */\n      dup3\n        /* \"#utility.yul\":12046:12062   */\n      shr\n        /* \"#utility.yul\":12025:12062   */\n      swap1\n      pop\n        /* \"#utility.yul\":11952:12069   */\n      swap3\n      swap2\n      pop\n      pop\n      jump\t// out\n        /* \"#utility.yul\":12075:12244   */\n    tag_108:\n        /* \"#utility.yul\":12119:12125   */\n      0x00\n        /* \"#utility.yul\":12152:12203   */\n      tag_247\n        /* \"#utility.yul\":12200:12201   */\n      0x00\n        /* \"#utility.yul\":12196:12202   */\n      not\n        /* \"#utility.yul\":12188:12193   */\n      dup5\n        /* \"#utility.yul\":12185:12186   */\n      0x08\n        /* \"#utility.yul\":12181:12194   */\n      mul\n        /* \"#utility.yul\":12152:12203   */\n      tag_107\n      jump\t// in\n    tag_247:\n        /* \"#utility.yul\":12148:12204   */\n      not\n        /* \"#utility.yul\":12233:12237   */\n      dup1\n        /* \"#utility.yul\":12227:12231   */\n      dup4\n        /* \"#utility.yul\":12223:12238   */\n      and\n        /* \"#utility.yul\":12213:12238   */\n      swap2\n      pop\n        /* \"#utility.yul\":12126:12244   */\n      pop\n        /* \"#utility.yul\":12075:12244   */\n      swap3\n      swap2\n      pop\n      pop\n      jump\t// out\n        /* \"#utility.yul\":12249:12544   */\n    tag_109:\n        /* \"#utility.yul\":12325:12329   */\n      0x00\n        /* \"#utility.yul\":12471:12500   */\n      tag_249\n        /* \"#utility.yul\":12496:12499   */\n      dup4\n        /* \"#utility.yul\":12490:12494   */\n      dup4\n        /* \"#utility.yul\":12471:12500   */\n      tag_108\n      jump\t// in\n    tag_249:\n        /* \"#utility.yul\":12463:12500   */\n      swap2\n      pop\n        /* \"#utility.yul\":12533:12536   */\n      dup3\n        /* \"#utility.yul\":12530:12531   */\n      0x02\n        /* \"#utility.yul\":12526:12537   */\n      mul\n        /* \"#utility.yul\":12520:12524   */\n      dup3\n        /* \"#utility.yul\":12517:12538   */\n      or\n        /* \"#utility.yul\":12509:12538   */\n      swap1\n      pop\n        /* \"#utility.yul\":12249:12544   */\n      swap3\n      swap2\n      pop\n      pop\n      jump\t// out\n        /* \"#utility.yul\":12549:13944   */\n    tag_55:\n        /* \"#utility.yul\":12666:12703   */\n      tag_251\n        /* \"#utility.yul\":12699:12702   */\n      dup3\n        /* \"#utility.yul\":12666:12703   */\n      tag_74\n      jump\t// in\n    tag_251:\n        /* \"#utility.yul\":12768:12786   */\n      0xffffffffffffffff\n        /* \"#utility.yul\":12760:12766   */\n      dup2\n        /* \"#utility.yul\":12757:12787   */\n      gt\n        /* \"#utility.yul\":12754:12810   */\n      iszero\n      tag_252\n      jumpi\n        /* \"#utility.yul\":12790:12808   */\n      tag_253\n      tag_82\n      jump\t// in\n    tag_253:\n        /* \"#utility.yul\":12754:12810   */\n    tag_252:\n        /* \"#utility.yul\":12834:12872   */\n      tag_254\n        /* \"#utility.yul\":12866:12870   */\n      dup3\n        /* \"#utility.yul\":12860:12871   */\n      sload\n        /* \"#utility.yul\":12834:12872   */\n      tag_37\n      jump\t// in\n    tag_254:\n        /* \"#utility.yul\":12919:12986   */\n      tag_255\n        /* \"#utility.yul\":12979:12985   */\n      dup3\n        /* \"#utility.yul\":12971:12977   */\n      dup3\n        /* \"#utility.yul\":12965:12969   */\n      dup6\n        /* \"#utility.yul\":12919:12986   */\n      tag_106\n      jump\t// in\n    tag_255:\n        /* \"#utility.yul\":13013:13014   */\n      0x00\n        /* \"#utility.yul\":13037:13041   */\n      0x20\n        /* \"#utility.yul\":13024:13041   */\n      swap1\n      pop\n        /* \"#utility.yul\":13069:13071   */\n      0x1f\n        /* \"#utility.yul\":13061:13067   */\n      dup4\n        /* \"#utility.yul\":13058:13072   */\n      gt\n        /* \"#utility.yul\":13086:13087   */\n      0x01\n        /* \"#utility.yul\":13081:13699   */\n      dup2\n      eq\n      tag_257\n      jumpi\n        /* \"#utility.yul\":13743:13744   */\n      0x00\n        /* \"#utility.yul\":13760:13766   */\n      dup5\n        /* \"#utility.yul\":13757:13834   */\n      iszero\n      tag_258\n      jumpi\n        /* \"#utility.yul\":13809:13818   */\n      dup3\n        /* \"#utility.yul\":13804:13807   */\n      dup8\n        /* \"#utility.yul\":13800:13819   */\n      add\n        /* \"#utility.yul\":13794:13820   */\n      mload\n        /* \"#utility.yul\":13785:13820   */\n      swap1\n      pop\n        /* \"#utility.yul\":13757:13834   */\n    tag_258:\n        /* \"#utility.yul\":13860:13927   */\n      tag_259\n        /* \"#utility.yul\":13920:13926   */\n      dup6\n        /* \"#utility.yul\":13913:13918   */\n      dup3\n        /* \"#utility.yul\":13860:13927   */\n      tag_109\n      jump\t// in\n    tag_259:\n        /* \"#utility.yul\":13854:13858   */\n      dup7\n        /* \"#utility.yul\":13847:13928   */\n      sstore\n        /* \"#utility.yul\":13716:13938   */\n      pop\n        /* \"#utility.yul\":13051:13938   */\n      jump(tag_256)\n        /* \"#utility.yul\":13081:13699   */\n    tag_257:\n        /* \"#utility.yul\":13133:13137   */\n      0x1f\n        /* \"#utility.yul\":13129:13138   */\n      not\n        /* \"#utility.yul\":13121:13127   */\n      dup5\n        /* \"#utility.yul\":13117:13139   */\n      and\n        /* \"#utility.yul\":13167:13204   */\n      tag_260\n        /* \"#utility.yul\":13199:13203   */\n      dup7\n        /* \"#utility.yul\":13167:13204   */\n      tag_95\n      jump\t// in\n    tag_260:\n        /* \"#utility.yul\":13226:13227   */\n      0x00\n        /* \"#utility.yul\":13240:13448   */\n    tag_261:\n        /* \"#utility.yul\":13254:13261   */\n      dup3\n        /* \"#utility.yul\":13251:13252   */\n      dup2\n        /* \"#utility.yul\":13248:13262   */\n      lt\n        /* \"#utility.yul\":13240:13448   */\n      iszero\n      tag_263\n      jumpi\n        /* \"#utility.yul\":13333:13342   */\n      dup5\n        /* \"#utility.yul\":13328:13331   */\n      dup10\n        /* \"#utility.yul\":13324:13343   */\n      add\n        /* \"#utility.yul\":13318:13344   */\n      mload\n        /* \"#utility.yul\":13310:13316   */\n      dup3\n        /* \"#utility.yul\":13303:13345   */\n      sstore\n        /* \"#utility.yul\":13384:13385   */\n      0x01\n        /* \"#utility.yul\":13376:13382   */\n      dup3\n        /* \"#utility.yul\":13372:13386   */\n      add\n        /* \"#utility.yul\":13362:13386   */\n      swap2\n      pop\n        /* \"#utility.yul\":13431:13433   */\n      0x20\n        /* \"#utility.yul\":13420:13429   */\n      dup6\n        /* \"#utility.yul\":13416:13434   */\n      add\n        /* \"#utility.yul\":13403:13434   */\n      swap5\n      pop\n        /* \"#utility.yul\":13277:13281   */\n      0x20\n        /* \"#utility.yul\":13274:13275   */\n      dup2\n        /* \"#utility.yul\":13270:13282   */\n      add\n        /* \"#utility.yul\":13265:13282   */\n      swap1\n      pop\n        /* \"#utility.yul\":13240:13448   */\n      jump(tag_261)\n    tag_263:\n        /* \"#utility.yul\":13476:13482   */\n      dup7\n        /* \"#utility.yul\":13467:13474   */\n      dup4\n        /* \"#utility.yul\":13464:13483   */\n      lt\n        /* \"#utility.yul\":13461:13640   */\n      iszero\n      tag_264\n      jumpi\n        /* \"#utility.yul\":13534:13543   */\n      dup5\n        /* \"#utility.yul\":13529:13532   */\n      dup10\n        /* \"#utility.yul\":13525:13544   */\n      add\n        /* \"#utility.yul\":13519:13545   */\n      mload\n        /* \"#utility.yul\":13577:13625   */\n      tag_265\n        /* \"#utility.yul\":13619:13623   */\n      0x1f\n        /* \"#utility.yul\":13611:13617   */\n      dup10\n        /* \"#utility.yul\":13607:13624   */\n      and\n        /* \"#utility.yul\":13596:13605   */\n      dup3\n        /* \"#utility.yul\":13577:13625   */\n      tag_108\n      jump\t// in\n    tag_265:\n        /* \"#utility.yul\":13569:13575   */\n      dup4\n        /* \"#utility.yul\":13562:13626   */\n      sstore\n        /* \"#utility.yul\":13484:13640   */\n      pop\n        /* \"#utility.yul\":13461:13640   */\n    tag_264:\n        /* \"#utility.yul\":13686:13687   */\n      0x01\n        /* \"#utility.yul\":13682:13683   */\n      0x02\n        /* \"#utility.yul\":13674:13680   */\n      dup9\n        /* \"#utility.yul\":13670:13684   */\n      mul\n        /* \"#utility.yul\":13666:13688   */\n      add\n        /* \"#utility.yul\":13660:13664   */\n      dup9\n        /* \"#utility.yul\":13653:13689   */\n      sstore\n        /* \"#utility.yul\":13088:13699   */\n      pop\n      pop\n      pop\n        /* \"#utility.yul\":13051:13938   */\n    tag_256:\n      pop\n        /* \"#utility.yul\":12641:13944   */\n      pop\n      pop\n      pop\n        /* \"#utility.yul\":12549:13944   */\n      pop\n      pop\n      jump\t// out\n        /* \"#utility.yul\":13950:14263   */\n    tag_57:\n        /* \"#utility.yul\":14063:14067   */\n      0x00\n        /* \"#utility.yul\":14101:14103   */\n      0x20\n        /* \"#utility.yul\":14090:14099   */\n      dup3\n        /* \"#utility.yul\":14086:14104   */\n      add\n        /* \"#utility.yul\":14078:14104   */\n      swap1\n      pop\n        /* \"#utility.yul\":14150:14159   */\n      dup2\n        /* \"#utility.yul\":14144:14148   */\n      dup2\n        /* \"#utility.yul\":14140:14160   */\n      sub\n        /* \"#utility.yul\":14136:14137   */\n      0x00\n        /* \"#utility.yul\":14125:14134   */\n      dup4\n        /* \"#utility.yul\":14121:14138   */\n      add\n        /* \"#utility.yul\":14114:14161   */\n      mstore\n        /* \"#utility.yul\":14178:14256   */\n      tag_267\n        /* \"#utility.yul\":14251:14255   */\n      dup2\n        /* \"#utility.yul\":14242:14248   */\n      dup5\n        /* \"#utility.yul\":14178:14256   */\n      tag_78\n      jump\t// in\n    tag_267:\n        /* \"#utility.yul\":14170:14256   */\n      swap1\n      pop\n        /* \"#utility.yul\":13950:14263   */\n      swap3\n      swap2\n      pop\n      pop\n      jump\t// out\n\n    auxdata: 0xa264697066735822122008aa33cf7a8824a0b5d078f89a4334c2a5781d43e173ac9ce9cba468dab21ebc64736f6c63430008180033\n}\n",
				"bytecode": {
					"linkReferences": {},
					"object": "608060405234801561000f575f80fd5b505f600281905550610c95806100245f395ff3fe608060405234801561000f575f80fd5b5060043610610060575f3560e01c806309eef43e146100645780633477ee2e146100945780633866965c146100c55780633eb76b9c146100e3578063462e91ec146100ff578063b4207d541461011b575b5f80fd5b61007e60048036038101906100799190610523565b61014b565b60405161008b9190610568565b60405180910390f35b6100ae60048036038101906100a991906105b4565b610168565b6040516100bc929190610678565b60405180910390f35b6100cd61020d565b6040516100da91906106a6565b60405180910390f35b6100fd60048036038101906100f891906105b4565b610213565b005b610119600480360381019061011491906107eb565b6103b0565b005b610135600480360381019061013091906105b4565b61044c565b60405161014291906106a6565b60405180910390f35b6001602052805f5260405f205f915054906101000a900460ff1681565b5f602052805f5260405f205f91509050805f0180546101869061085f565b80601f01602080910402602001604051908101604052809291908181526020018280546101b29061085f565b80156101fd5780601f106101d4576101008083540402835291602001916101fd565b820191905f5260205f20905b8154815290600101906020018083116101e057829003601f168201915b5050505050908060010154905082565b60025481565b5f8111801561022457506002548111155b610263576040517f08c379a000000000000000000000000000000000000000000000000000000000815260040161025a906108d9565b60405180910390fd5b60015f3373ffffffffffffffffffffffffffffffffffffffff1673ffffffffffffffffffffffffffffffffffffffff1681526020019081526020015f205f9054906101000a900460ff16156102ed576040517f08c379a00000000000000000000000000000000000000000000000000000000081526004016102e490610941565b60405180910390fd5b5f808281526020019081526020015f206001015f8154809291906103109061098c565b91905055506001805f3373ffffffffffffffffffffffffffffffffffffffff1673ffffffffffffffffffffffffffffffffffffffff1681526020019081526020015f205f6101000a81548160ff021916908315150217905550803373ffffffffffffffffffffffffffffffffffffffff167f4d99b957a2bc29a30ebd96a7be8e68fe50a3c701db28a91436490b7d53870ca460405160405180910390a350565b60025f8154809291906103c29061098c565b919050555060405180604001604052808281526020015f8152505f8060025481526020019081526020015f205f820151815f0190816104019190610b70565b50602082015181600101559050506002547fe83b2a43e7e82d975c8a0a6d2f045153c869e111136a34d1889ab7b598e396a3826040516104419190610c3f565b60405180910390a250565b5f808211801561045e57506002548211155b61049d576040517f08c379a0000000000000000000000000000000000000000000000000000000008152600401610494906108d9565b60405180910390fd5b5f808381526020019081526020015f20600101549050919050565b5f604051905090565b5f80fd5b5f80fd5b5f73ffffffffffffffffffffffffffffffffffffffff82169050919050565b5f6104f2826104c9565b9050919050565b610502816104e8565b811461050c575f80fd5b50565b5f8135905061051d816104f9565b92915050565b5f60208284031215610538576105376104c1565b5b5f6105458482850161050f565b91505092915050565b5f8115159050919050565b6105628161054e565b82525050565b5f60208201905061057b5f830184610559565b92915050565b5f819050919050565b61059381610581565b811461059d575f80fd5b50565b5f813590506105ae8161058a565b92915050565b5f602082840312156105c9576105c86104c1565b5b5f6105d6848285016105a0565b91505092915050565b5f81519050919050565b5f82825260208201905092915050565b5f5b838110156106165780820151818401526020810190506105fb565b5f8484015250505050565b5f601f19601f8301169050919050565b5f61063b826105df565b61064581856105e9565b93506106558185602086016105f9565b61065e81610621565b840191505092915050565b61067281610581565b82525050565b5f6040820190508181035f8301526106908185610631565b905061069f6020830184610669565b9392505050565b5f6020820190506106b95f830184610669565b92915050565b5f80fd5b5f80fd5b7f4e487b71000000000000000000000000000000000000000000000000000000005f52604160045260245ffd5b6106fd82610621565b810181811067ffffffffffffffff8211171561071c5761071b6106c7565b5b80604052505050565b5f61072e6104b8565b905061073a82826106f4565b919050565b5f67ffffffffffffffff821115610759576107586106c7565b5b61076282610621565b9050602081019050919050565b828183375f83830152505050565b5f61078f61078a8461073f565b610725565b9050828152602081018484840111156107ab576107aa6106c3565b5b6107b684828561076f565b509392505050565b5f82601f8301126107d2576107d16106bf565b5b81356107e284826020860161077d565b91505092915050565b5f60208284031215610800576107ff6104c1565b5b5f82013567ffffffffffffffff81111561081d5761081c6104c5565b5b610829848285016107be565b91505092915050565b7f4e487b71000000000000000000000000000000000000000000000000000000005f52602260045260245ffd5b5f600282049050600182168061087657607f821691505b60208210810361088957610888610832565b5b50919050565b7f496e76616c69642063616e6469646174652049440000000000000000000000005f82015250565b5f6108c36014836105e9565b91506108ce8261088f565b602082019050919050565b5f6020820190508181035f8301526108f0816108b7565b9050919050565b7f596f75206861766520616c726561647920766f746564000000000000000000005f82015250565b5f61092b6016836105e9565b9150610936826108f7565b602082019050919050565b5f6020820190508181035f8301526109588161091f565b9050919050565b7f4e487b71000000000000000000000000000000000000000000000000000000005f52601160045260245ffd5b5f61099682610581565b91507fffffffffffffffffffffffffffffffffffffffffffffffffffffffffffffffff82036109c8576109c761095f565b5b600182019050919050565b5f819050815f5260205f209050919050565b5f6020601f8301049050919050565b5f82821b905092915050565b5f60088302610a2f7fffffffffffffffffffffffffffffffffffffffffffffffffffffffffffffffff826109f4565b610a3986836109f4565b95508019841693508086168417925050509392505050565b5f819050919050565b5f610a74610a6f610a6a84610581565b610a51565b610581565b9050919050565b5f819050919050565b610a8d83610a5a565b610aa1610a9982610a7b565b848454610a00565b825550505050565b5f90565b610ab5610aa9565b610ac0818484610a84565b505050565b5b81811015610ae357610ad85f82610aad565b600181019050610ac6565b5050565b601f821115610b2857610af9816109d3565b610b02846109e5565b81016020851015610b11578190505b610b25610b1d856109e5565b830182610ac5565b50505b505050565b5f82821c905092915050565b5f610b485f1984600802610b2d565b1980831691505092915050565b5f610b608383610b39565b9150826002028217905092915050565b610b79826105df565b67ffffffffffffffff811115610b9257610b916106c7565b5b610b9c825461085f565b610ba7828285610ae7565b5f60209050601f831160018114610bd8575f8415610bc6578287015190505b610bd08582610b55565b865550610c37565b601f198416610be6866109d3565b5f5b82811015610c0d57848901518255600182019150602085019450602081019050610be8565b86831015610c2a5784890151610c26601f891682610b39565b8355505b6001600288020188555050505b505050505050565b5f6020820190508181035f830152610c578184610631565b90509291505056fea264697066735822122008aa33cf7a8824a0b5d078f89a4334c2a5781d43e173ac9ce9cba468dab21ebc64736f6c63430008180033",
					"opcodes": "PUSH1 0x80 PUSH1 0x40 MSTORE CALLVALUE DUP1 ISZERO PUSH2 0xF JUMPI PUSH0 DUP1 REVERT JUMPDEST POP PUSH0 PUSH1 0x2 DUP2 SWAP1 SSTORE POP PUSH2 0xC95 DUP1 PUSH2 0x24 PUSH0 CODECOPY PUSH0 RETURN INVALID PUSH1 0x80 PUSH1 0x40 MSTORE CALLVALUE DUP1 ISZERO PUSH2 0xF JUMPI PUSH0 DUP1 REVERT JUMPDEST POP PUSH1 0x4 CALLDATASIZE LT PUSH2 0x60 JUMPI PUSH0 CALLDATALOAD PUSH1 0xE0 SHR DUP1 PUSH4 0x9EEF43E EQ PUSH2 0x64 JUMPI DUP1 PUSH4 0x3477EE2E EQ PUSH2 0x94 JUMPI DUP1 PUSH4 0x3866965C EQ PUSH2 0xC5 JUMPI DUP1 PUSH4 0x3EB76B9C EQ PUSH2 0xE3 JUMPI DUP1 PUSH4 0x462E91EC EQ PUSH2 0xFF JUMPI DUP1 PUSH4 0xB4207D54 EQ PUSH2 0x11B JUMPI JUMPDEST PUSH0 DUP1 REVERT JUMPDEST PUSH2 0x7E PUSH1 0x4 DUP1 CALLDATASIZE SUB DUP2 ADD SWAP1 PUSH2 0x79 SWAP2 SWAP1 PUSH2 0x523 JUMP JUMPDEST PUSH2 0x14B JUMP JUMPDEST PUSH1 0x40 MLOAD PUSH2 0x8B SWAP2 SWAP1 PUSH2 0x568 JUMP JUMPDEST PUSH1 0x40 MLOAD DUP1 SWAP2 SUB SWAP1 RETURN JUMPDEST PUSH2 0xAE PUSH1 0x4 DUP1 CALLDATASIZE SUB DUP2 ADD SWAP1 PUSH2 0xA9 SWAP2 SWAP1 PUSH2 0x5B4 JUMP JUMPDEST PUSH2 0x168 JUMP JUMPDEST PUSH1 0x40 MLOAD PUSH2 0xBC SWAP3 SWAP2 SWAP1 PUSH2 0x678 JUMP JUMPDEST PUSH1 0x40 MLOAD DUP1 SWAP2 SUB SWAP1 RETURN JUMPDEST PUSH2 0xCD PUSH2 0x20D JUMP JUMPDEST PUSH1 0x40 MLOAD PUSH2 0xDA SWAP2 SWAP1 PUSH2 0x6A6 JUMP JUMPDEST PUSH1 0x40 MLOAD DUP1 SWAP2 SUB SWAP1 RETURN JUMPDEST PUSH2 0xFD PUSH1 0x4 DUP1 CALLDATASIZE SUB DUP2 ADD SWAP1 PUSH2 0xF8 SWAP2 SWAP1 PUSH2 0x5B4 JUMP JUMPDEST PUSH2 0x213 JUMP JUMPDEST STOP JUMPDEST PUSH2 0x119 PUSH1 0x4 DUP1 CALLDATASIZE SUB DUP2 ADD SWAP1 PUSH2 0x114 SWAP2 SWAP1 PUSH2 0x7EB JUMP JUMPDEST PUSH2 0x3B0 JUMP JUMPDEST STOP JUMPDEST PUSH2 0x135 PUSH1 0x4 DUP1 CALLDATASIZE SUB DUP2 ADD SWAP1 PUSH2 0x130 SWAP2 SWAP1 PUSH2 0x5B4 JUMP JUMPDEST PUSH2 0x44C JUMP JUMPDEST PUSH1 0x40 MLOAD PUSH2 0x142 SWAP2 SWAP1 PUSH2 0x6A6 JUMP JUMPDEST PUSH1 0x40 MLOAD DUP1 SWAP2 SUB SWAP1 RETURN JUMPDEST PUSH1 0x1 PUSH1 0x20 MSTORE DUP1 PUSH0 MSTORE PUSH1 0x40 PUSH0 KECCAK256 PUSH0 SWAP2 POP SLOAD SWAP1 PUSH2 0x100 EXP SWAP1 DIV PUSH1 0xFF AND DUP2 JUMP JUMPDEST PUSH0 PUSH1 0x20 MSTORE DUP1 PUSH0 MSTORE PUSH1 0x40 PUSH0 KECCAK256 PUSH0 SWAP2 POP SWAP1 POP DUP1 PUSH0 ADD DUP1 SLOAD PUSH2 0x186 SWAP1 PUSH2 0x85F JUMP JUMPDEST DUP1 PUSH1 0x1F ADD PUSH1 0x20 DUP1 SWAP2 DIV MUL PUSH1 0x20 ADD PUSH1 0x40 MLOAD SWAP1 DUP2 ADD PUSH1 0x40 MSTORE DUP1 SWAP3 SWAP2 SWAP1 DUP2 DUP2 MSTORE PUSH1 0x20 ADD DUP3 DUP1 SLOAD PUSH2 0x1B2 SWAP1 PUSH2 0x85F JUMP JUMPDEST DUP1 ISZERO PUSH2 0x1FD JUMPI DUP1 PUSH1 0x1F LT PUSH2 0x1D4 JUMPI PUSH2 0x100 DUP1 DUP4 SLOAD DIV MUL DUP4 MSTORE SWAP2 PUSH1 0x20 ADD SWAP2 PUSH2 0x1FD JUMP JUMPDEST DUP3 ADD SWAP2 SWAP1 PUSH0 MSTORE PUSH1 0x20 PUSH0 KECCAK256 SWAP1 JUMPDEST DUP2 SLOAD DUP2 MSTORE SWAP1 PUSH1 0x1 ADD SWAP1 PUSH1 0x20 ADD DUP1 DUP4 GT PUSH2 0x1E0 JUMPI DUP3 SWAP1 SUB PUSH1 0x1F AND DUP3 ADD SWAP2 JUMPDEST POP POP POP POP POP SWAP1 DUP1 PUSH1 0x1 ADD SLOAD SWAP1 POP DUP3 JUMP JUMPDEST PUSH1 0x2 SLOAD DUP2 JUMP JUMPDEST PUSH0 DUP2 GT DUP1 ISZERO PUSH2 0x224 JUMPI POP PUSH1 0x2 SLOAD DUP2 GT ISZERO JUMPDEST PUSH2 0x263 JUMPI PUSH1 0x40 MLOAD PUSH32 0x8C379A000000000000000000000000000000000000000000000000000000000 DUP2 MSTORE PUSH1 0x4 ADD PUSH2 0x25A SWAP1 PUSH2 0x8D9 JUMP JUMPDEST PUSH1 0x40 MLOAD DUP1 SWAP2 SUB SWAP1 REVERT JUMPDEST PUSH1 0x1 PUSH0 CALLER PUSH20 0xFFFFFFFFFFFFFFFFFFFFFFFFFFFFFFFFFFFFFFFF AND PUSH20 0xFFFFFFFFFFFFFFFFFFFFFFFFFFFFFFFFFFFFFFFF AND DUP2 MSTORE PUSH1 0x20 ADD SWAP1 DUP2 MSTORE PUSH1 0x20 ADD PUSH0 KECCAK256 PUSH0 SWAP1 SLOAD SWAP1 PUSH2 0x100 EXP SWAP1 DIV PUSH1 0xFF AND ISZERO PUSH2 0x2ED JUMPI PUSH1 0x40 MLOAD PUSH32 0x8C379A000000000000000000000000000000000000000000000000000000000 DUP2 MSTORE PUSH1 0x4 ADD PUSH2 0x2E4 SWAP1 PUSH2 0x941 JUMP JUMPDEST PUSH1 0x40 MLOAD DUP1 SWAP2 SUB SWAP1 REVERT JUMPDEST PUSH0 DUP1 DUP3 DUP2 MSTORE PUSH1 0x20 ADD SWAP1 DUP2 MSTORE PUSH1 0x20 ADD PUSH0 KECCAK256 PUSH1 0x1 ADD PUSH0 DUP2 SLOAD DUP1 SWAP3 SWAP2 SWAP1 PUSH2 0x310 SWAP1 PUSH2 0x98C JUMP JUMPDEST SWAP2 SWAP1 POP SSTORE POP PUSH1 0x1 DUP1 PUSH0 CALLER PUSH20 0xFFFFFFFFFFFFFFFFFFFFFFFFFFFFFFFFFFFFFFFF AND PUSH20 0xFFFFFFFFFFFFFFFFFFFFFFFFFFFFFFFFFFFFFFFF AND DUP2 MSTORE PUSH1 0x20 ADD SWAP1 DUP2 MSTORE PUSH1 0x20 ADD PUSH0 KECCAK256 PUSH0 PUSH2 0x100 EXP DUP2 SLOAD DUP2 PUSH1 0xFF MUL NOT AND SWAP1 DUP4 ISZERO ISZERO MUL OR SWAP1 SSTORE POP DUP1 CALLER PUSH20 0xFFFFFFFFFFFFFFFFFFFFFFFFFFFFFFFFFFFFFFFF AND PUSH32 0x4D99B957A2BC29A30EBD96A7BE8E68FE50A3C701DB28A91436490B7D53870CA4 PUSH1 0x40 MLOAD PUSH1 0x40 MLOAD DUP1 SWAP2 SUB SWAP1 LOG3 POP JUMP JUMPDEST PUSH1 0x2 PUSH0 DUP2 SLOAD DUP1 SWAP3 SWAP2 SWAP1 PUSH2 0x3C2 SWAP1 PUSH2 0x98C JUMP JUMPDEST SWAP2 SWAP1 POP SSTORE POP PUSH1 0x40 MLOAD DUP1 PUSH1 0x40 ADD PUSH1 0x40 MSTORE DUP1 DUP3 DUP2 MSTORE PUSH1 0x20 ADD PUSH0 DUP2 MSTORE POP PUSH0 DUP1 PUSH1 0x2 SLOAD DUP2 MSTORE PUSH1 0x20 ADD SWAP1 DUP2 MSTORE PUSH1 0x20 ADD PUSH0 KECCAK256 PUSH0 DUP3 ADD MLOAD DUP2 PUSH0 ADD SWAP1 DUP2 PUSH2 0x401 SWAP2 SWAP1 PUSH2 0xB70 JUMP JUMPDEST POP PUSH1 0x20 DUP3 ADD MLOAD DUP2 PUSH1 0x1 ADD SSTORE SWAP1 POP POP PUSH1 0x2 SLOAD PUSH32 0xE83B2A43E7E82D975C8A0A6D2F045153C869E111136A34D1889AB7B598E396A3 DUP3 PUSH1 0x40 MLOAD PUSH2 0x441 SWAP2 SWAP1 PUSH2 0xC3F JUMP JUMPDEST PUSH1 0x40 MLOAD DUP1 SWAP2 SUB SWAP1 LOG2 POP JUMP JUMPDEST PUSH0 DUP1 DUP3 GT DUP1 ISZERO PUSH2 0x45E JUMPI POP PUSH1 0x2 SLOAD DUP3 GT ISZERO JUMPDEST PUSH2 0x49D JUMPI PUSH1 0x40 MLOAD PUSH32 0x8C379A000000000000000000000000000000000000000000000000000000000 DUP2 MSTORE PUSH1 0x4 ADD PUSH2 0x494 SWAP1 PUSH2 0x8D9 JUMP JUMPDEST PUSH1 0x40 MLOAD DUP1 SWAP2 SUB SWAP1 REVERT JUMPDEST PUSH0 DUP1 DUP4 DUP2 MSTORE PUSH1 0x20 ADD SWAP1 DUP2 MSTORE PUSH1 0x20 ADD PUSH0 KECCAK256 PUSH1 0x1 ADD SLOAD SWAP1 POP SWAP2 SWAP1 POP JUMP JUMPDEST PUSH0 PUSH1 0x40 MLOAD SWAP1 POP SWAP1 JUMP JUMPDEST PUSH0 DUP1 REVERT JUMPDEST PUSH0 DUP1 REVERT JUMPDEST PUSH0 PUSH20 0xFFFFFFFFFFFFFFFFFFFFFFFFFFFFFFFFFFFFFFFF DUP3 AND SWAP1 POP SWAP2 SWAP1 POP JUMP JUMPDEST PUSH0 PUSH2 0x4F2 DUP3 PUSH2 0x4C9 JUMP JUMPDEST SWAP1 POP SWAP2 SWAP1 POP JUMP JUMPDEST PUSH2 0x502 DUP2 PUSH2 0x4E8 JUMP JUMPDEST DUP2 EQ PUSH2 0x50C JUMPI PUSH0 DUP1 REVERT JUMPDEST POP JUMP JUMPDEST PUSH0 DUP2 CALLDATALOAD SWAP1 POP PUSH2 0x51D DUP2 PUSH2 0x4F9 JUMP JUMPDEST SWAP3 SWAP2 POP POP JUMP JUMPDEST PUSH0 PUSH1 0x20 DUP3 DUP5 SUB SLT ISZERO PUSH2 0x538 JUMPI PUSH2 0x537 PUSH2 0x4C1 JUMP JUMPDEST JUMPDEST PUSH0 PUSH2 0x545 DUP5 DUP3 DUP6 ADD PUSH2 0x50F JUMP JUMPDEST SWAP2 POP POP SWAP3 SWAP2 POP POP JUMP JUMPDEST PUSH0 DUP2 ISZERO ISZERO SWAP1 POP SWAP2 SWAP1 POP JUMP JUMPDEST PUSH2 0x562 DUP2 PUSH2 0x54E JUMP JUMPDEST DUP3 MSTORE POP POP JUMP JUMPDEST PUSH0 PUSH1 0x20 DUP3 ADD SWAP1 POP PUSH2 0x57B PUSH0 DUP4 ADD DUP5 PUSH2 0x559 JUMP JUMPDEST SWAP3 SWAP2 POP POP JUMP JUMPDEST PUSH0 DUP2 SWAP1 POP SWAP2 SWAP1 POP JUMP JUMPDEST PUSH2 0x593 DUP2 PUSH2 0x581 JUMP JUMPDEST DUP2 EQ PUSH2 0x59D JUMPI PUSH0 DUP1 REVERT JUMPDEST POP JUMP JUMPDEST PUSH0 DUP2 CALLDATALOAD SWAP1 POP PUSH2 0x5AE DUP2 PUSH2 0x58A JUMP JUMPDEST SWAP3 SWAP2 POP POP JUMP JUMPDEST PUSH0 PUSH1 0x20 DUP3 DUP5 SUB SLT ISZERO PUSH2 0x5C9 JUMPI PUSH2 0x5C8 PUSH2 0x4C1 JUMP JUMPDEST JUMPDEST PUSH0 PUSH2 0x5D6 DUP5 DUP3 DUP6 ADD PUSH2 0x5A0 JUMP JUMPDEST SWAP2 POP POP SWAP3 SWAP2 POP POP JUMP JUMPDEST PUSH0 DUP2 MLOAD SWAP1 POP SWAP2 SWAP1 POP JUMP JUMPDEST PUSH0 DUP3 DUP3 MSTORE PUSH1 0x20 DUP3 ADD SWAP1 POP SWAP3 SWAP2 POP POP JUMP JUMPDEST PUSH0 JUMPDEST DUP4 DUP2 LT ISZERO PUSH2 0x616 JUMPI DUP1 DUP3 ADD MLOAD DUP2 DUP5 ADD MSTORE PUSH1 0x20 DUP2 ADD SWAP1 POP PUSH2 0x5FB JUMP JUMPDEST PUSH0 DUP5 DUP5 ADD MSTORE POP POP POP POP JUMP JUMPDEST PUSH0 PUSH1 0x1F NOT PUSH1 0x1F DUP4 ADD AND SWAP1 POP SWAP2 SWAP1 POP JUMP JUMPDEST PUSH0 PUSH2 0x63B DUP3 PUSH2 0x5DF JUMP JUMPDEST PUSH2 0x645 DUP2 DUP6 PUSH2 0x5E9 JUMP JUMPDEST SWAP4 POP PUSH2 0x655 DUP2 DUP6 PUSH1 0x20 DUP7 ADD PUSH2 0x5F9 JUMP JUMPDEST PUSH2 0x65E DUP2 PUSH2 0x621 JUMP JUMPDEST DUP5 ADD SWAP2 POP POP SWAP3 SWAP2 POP POP JUMP JUMPDEST PUSH2 0x672 DUP2 PUSH2 0x581 JUMP JUMPDEST DUP3 MSTORE POP POP JUMP JUMPDEST PUSH0 PUSH1 0x40 DUP3 ADD SWAP1 POP DUP2 DUP2 SUB PUSH0 DUP4 ADD MSTORE PUSH2 0x690 DUP2 DUP6 PUSH2 0x631 JUMP JUMPDEST SWAP1 POP PUSH2 0x69F PUSH1 0x20 DUP4 ADD DUP5 PUSH2 0x669 JUMP JUMPDEST SWAP4 SWAP3 POP POP POP JUMP JUMPDEST PUSH0 PUSH1 0x20 DUP3 ADD SWAP1 POP PUSH2 0x6B9 PUSH0 DUP4 ADD DUP5 PUSH2 0x669 JUMP JUMPDEST SWAP3 SWAP2 POP POP JUMP JUMPDEST PUSH0 DUP1 REVERT JUMPDEST PUSH0 DUP1 REVERT JUMPDEST PUSH32 0x4E487B7100000000000000000000000000000000000000000000000000000000 PUSH0 MSTORE PUSH1 0x41 PUSH1 0x4 MSTORE PUSH1 0x24 PUSH0 REVERT JUMPDEST PUSH2 0x6FD DUP3 PUSH2 0x621 JUMP JUMPDEST DUP2 ADD DUP2 DUP2 LT PUSH8 0xFFFFFFFFFFFFFFFF DUP3 GT OR ISZERO PUSH2 0x71C JUMPI PUSH2 0x71B PUSH2 0x6C7 JUMP JUMPDEST JUMPDEST DUP1 PUSH1 0x40 MSTORE POP POP POP JUMP JUMPDEST PUSH0 PUSH2 0x72E PUSH2 0x4B8 JUMP JUMPDEST SWAP1 POP PUSH2 0x73A DUP3 DUP3 PUSH2 0x6F4 JUMP JUMPDEST SWAP2 SWAP1 POP JUMP JUMPDEST PUSH0 PUSH8 0xFFFFFFFFFFFFFFFF DUP3 GT ISZERO PUSH2 0x759 JUMPI PUSH2 0x758 PUSH2 0x6C7 JUMP JUMPDEST JUMPDEST PUSH2 0x762 DUP3 PUSH2 0x621 JUMP JUMPDEST SWAP1 POP PUSH1 0x20 DUP2 ADD SWAP1 POP SWAP2 SWAP1 POP JUMP JUMPDEST DUP3 DUP2 DUP4 CALLDATACOPY PUSH0 DUP4 DUP4 ADD MSTORE POP POP POP JUMP JUMPDEST PUSH0 PUSH2 0x78F PUSH2 0x78A DUP5 PUSH2 0x73F JUMP JUMPDEST PUSH2 0x725 JUMP JUMPDEST SWAP1 POP DUP3 DUP2 MSTORE PUSH1 0x20 DUP2 ADD DUP5 DUP5 DUP5 ADD GT ISZERO PUSH2 0x7AB JUMPI PUSH2 0x7AA PUSH2 0x6C3 JUMP JUMPDEST JUMPDEST PUSH2 0x7B6 DUP5 DUP3 DUP6 PUSH2 0x76F JUMP JUMPDEST POP SWAP4 SWAP3 POP POP POP JUMP JUMPDEST PUSH0 DUP3 PUSH1 0x1F DUP4 ADD SLT PUSH2 0x7D2 JUMPI PUSH2 0x7D1 PUSH2 0x6BF JUMP JUMPDEST JUMPDEST DUP2 CALLDATALOAD PUSH2 0x7E2 DUP5 DUP3 PUSH1 0x20 DUP7 ADD PUSH2 0x77D JUMP JUMPDEST SWAP2 POP POP SWAP3 SWAP2 POP POP JUMP JUMPDEST PUSH0 PUSH1 0x20 DUP3 DUP5 SUB SLT ISZERO PUSH2 0x800 JUMPI PUSH2 0x7FF PUSH2 0x4C1 JUMP JUMPDEST JUMPDEST PUSH0 DUP3 ADD CALLDATALOAD PUSH8 0xFFFFFFFFFFFFFFFF DUP2 GT ISZERO PUSH2 0x81D JUMPI PUSH2 0x81C PUSH2 0x4C5 JUMP JUMPDEST JUMPDEST PUSH2 0x829 DUP5 DUP3 DUP6 ADD PUSH2 0x7BE JUMP JUMPDEST SWAP2 POP POP SWAP3 SWAP2 POP POP JUMP JUMPDEST PUSH32 0x4E487B7100000000000000000000000000000000000000000000000000000000 PUSH0 MSTORE PUSH1 0x22 PUSH1 0x4 MSTORE PUSH1 0x24 PUSH0 REVERT JUMPDEST PUSH0 PUSH1 0x2 DUP3 DIV SWAP1 POP PUSH1 0x1 DUP3 AND DUP1 PUSH2 0x876 JUMPI PUSH1 0x7F DUP3 AND SWAP2 POP JUMPDEST PUSH1 0x20 DUP3 LT DUP2 SUB PUSH2 0x889 JUMPI PUSH2 0x888 PUSH2 0x832 JUMP JUMPDEST JUMPDEST POP SWAP2 SWAP1 POP JUMP JUMPDEST PUSH32 0x496E76616C69642063616E646964617465204944000000000000000000000000 PUSH0 DUP3 ADD MSTORE POP JUMP JUMPDEST PUSH0 PUSH2 0x8C3 PUSH1 0x14 DUP4 PUSH2 0x5E9 JUMP JUMPDEST SWAP2 POP PUSH2 0x8CE DUP3 PUSH2 0x88F JUMP JUMPDEST PUSH1 0x20 DUP3 ADD SWAP1 POP SWAP2 SWAP1 POP JUMP JUMPDEST PUSH0 PUSH1 0x20 DUP3 ADD SWAP1 POP DUP2 DUP2 SUB PUSH0 DUP4 ADD MSTORE PUSH2 0x8F0 DUP2 PUSH2 0x8B7 JUMP JUMPDEST SWAP1 POP SWAP2 SWAP1 POP JUMP JUMPDEST PUSH32 0x596F75206861766520616C726561647920766F74656400000000000000000000 PUSH0 DUP3 ADD MSTORE POP JUMP JUMPDEST PUSH0 PUSH2 0x92B PUSH1 0x16 DUP4 PUSH2 0x5E9 JUMP JUMPDEST SWAP2 POP PUSH2 0x936 DUP3 PUSH2 0x8F7 JUMP JUMPDEST PUSH1 0x20 DUP3 ADD SWAP1 POP SWAP2 SWAP1 POP JUMP JUMPDEST PUSH0 PUSH1 0x20 DUP3 ADD SWAP1 POP DUP2 DUP2 SUB PUSH0 DUP4 ADD MSTORE PUSH2 0x958 DUP2 PUSH2 0x91F JUMP JUMPDEST SWAP1 POP SWAP2 SWAP1 POP JUMP JUMPDEST PUSH32 0x4E487B7100000000000000000000000000000000000000000000000000000000 PUSH0 MSTORE PUSH1 0x11 PUSH1 0x4 MSTORE PUSH1 0x24 PUSH0 REVERT JUMPDEST PUSH0 PUSH2 0x996 DUP3 PUSH2 0x581 JUMP JUMPDEST SWAP2 POP PUSH32 0xFFFFFFFFFFFFFFFFFFFFFFFFFFFFFFFFFFFFFFFFFFFFFFFFFFFFFFFFFFFFFFFF DUP3 SUB PUSH2 0x9C8 JUMPI PUSH2 0x9C7 PUSH2 0x95F JUMP JUMPDEST JUMPDEST PUSH1 0x1 DUP3 ADD SWAP1 POP SWAP2 SWAP1 POP JUMP JUMPDEST PUSH0 DUP2 SWAP1 POP DUP2 PUSH0 MSTORE PUSH1 0x20 PUSH0 KECCAK256 SWAP1 POP SWAP2 SWAP1 POP JUMP JUMPDEST PUSH0 PUSH1 0x20 PUSH1 0x1F DUP4 ADD DIV SWAP1 POP SWAP2 SWAP1 POP JUMP JUMPDEST PUSH0 DUP3 DUP3 SHL SWAP1 POP SWAP3 SWAP2 POP POP JUMP JUMPDEST PUSH0 PUSH1 0x8 DUP4 MUL PUSH2 0xA2F PUSH32 0xFFFFFFFFFFFFFFFFFFFFFFFFFFFFFFFFFFFFFFFFFFFFFFFFFFFFFFFFFFFFFFFF DUP3 PUSH2 0x9F4 JUMP JUMPDEST PUSH2 0xA39 DUP7 DUP4 PUSH2 0x9F4 JUMP JUMPDEST SWAP6 POP DUP1 NOT DUP5 AND SWAP4 POP DUP1 DUP7 AND DUP5 OR SWAP3 POP POP POP SWAP4 SWAP3 POP POP POP JUMP JUMPDEST PUSH0 DUP2 SWAP1 POP SWAP2 SWAP1 POP JUMP JUMPDEST PUSH0 PUSH2 0xA74 PUSH2 0xA6F PUSH2 0xA6A DUP5 PUSH2 0x581 JUMP JUMPDEST PUSH2 0xA51 JUMP JUMPDEST PUSH2 0x581 JUMP JUMPDEST SWAP1 POP SWAP2 SWAP1 POP JUMP JUMPDEST PUSH0 DUP2 SWAP1 POP SWAP2 SWAP1 POP JUMP JUMPDEST PUSH2 0xA8D DUP4 PUSH2 0xA5A JUMP JUMPDEST PUSH2 0xAA1 PUSH2 0xA99 DUP3 PUSH2 0xA7B JUMP JUMPDEST DUP5 DUP5 SLOAD PUSH2 0xA00 JUMP JUMPDEST DUP3 SSTORE POP POP POP POP JUMP JUMPDEST PUSH0 SWAP1 JUMP JUMPDEST PUSH2 0xAB5 PUSH2 0xAA9 JUMP JUMPDEST PUSH2 0xAC0 DUP2 DUP5 DUP5 PUSH2 0xA84 JUMP JUMPDEST POP POP POP JUMP JUMPDEST JUMPDEST DUP2 DUP2 LT ISZERO PUSH2 0xAE3 JUMPI PUSH2 0xAD8 PUSH0 DUP3 PUSH2 0xAAD JUMP JUMPDEST PUSH1 0x1 DUP2 ADD SWAP1 POP PUSH2 0xAC6 JUMP JUMPDEST POP POP JUMP JUMPDEST PUSH1 0x1F DUP3 GT ISZERO PUSH2 0xB28 JUMPI PUSH2 0xAF9 DUP2 PUSH2 0x9D3 JUMP JUMPDEST PUSH2 0xB02 DUP5 PUSH2 0x9E5 JUMP JUMPDEST DUP2 ADD PUSH1 0x20 DUP6 LT ISZERO PUSH2 0xB11 JUMPI DUP2 SWAP1 POP JUMPDEST PUSH2 0xB25 PUSH2 0xB1D DUP6 PUSH2 0x9E5 JUMP JUMPDEST DUP4 ADD DUP3 PUSH2 0xAC5 JUMP JUMPDEST POP POP JUMPDEST POP POP POP JUMP JUMPDEST PUSH0 DUP3 DUP3 SHR SWAP1 POP SWAP3 SWAP2 POP POP JUMP JUMPDEST PUSH0 PUSH2 0xB48 PUSH0 NOT DUP5 PUSH1 0x8 MUL PUSH2 0xB2D JUMP JUMPDEST NOT DUP1 DUP4 AND SWAP2 POP POP SWAP3 SWAP2 POP POP JUMP JUMPDEST PUSH0 PUSH2 0xB60 DUP4 DUP4 PUSH2 0xB39 JUMP JUMPDEST SWAP2 POP DUP3 PUSH1 0x2 MUL DUP3 OR SWAP1 POP SWAP3 SWAP2 POP POP JUMP JUMPDEST PUSH2 0xB79 DUP3 PUSH2 0x5DF JUMP JUMPDEST PUSH8 0xFFFFFFFFFFFFFFFF DUP2 GT ISZERO PUSH2 0xB92 JUMPI PUSH2 0xB91 PUSH2 0x6C7 JUMP JUMPDEST JUMPDEST PUSH2 0xB9C DUP3 SLOAD PUSH2 0x85F JUMP JUMPDEST PUSH2 0xBA7 DUP3 DUP3 DUP6 PUSH2 0xAE7 JUMP JUMPDEST PUSH0 PUSH1 0x20 SWAP1 POP PUSH1 0x1F DUP4 GT PUSH1 0x1 DUP2 EQ PUSH2 0xBD8 JUMPI PUSH0 DUP5 ISZERO PUSH2 0xBC6 JUMPI DUP3 DUP8 ADD MLOAD SWAP1 POP JUMPDEST PUSH2 0xBD0 DUP6 DUP3 PUSH2 0xB55 JUMP JUMPDEST DUP7 SSTORE POP PUSH2 0xC37 JUMP JUMPDEST PUSH1 0x1F NOT DUP5 AND PUSH2 0xBE6 DUP7 PUSH2 0x9D3 JUMP JUMPDEST PUSH0 JUMPDEST DUP3 DUP2 LT ISZERO PUSH2 0xC0D JUMPI DUP5 DUP10 ADD MLOAD DUP3 SSTORE PUSH1 0x1 DUP3 ADD SWAP2 POP PUSH1 0x20 DUP6 ADD SWAP5 POP PUSH1 0x20 DUP2 ADD SWAP1 POP PUSH2 0xBE8 JUMP JUMPDEST DUP7 DUP4 LT ISZERO PUSH2 0xC2A JUMPI DUP5 DUP10 ADD MLOAD PUSH2 0xC26 PUSH1 0x1F DUP10 AND DUP3 PUSH2 0xB39 JUMP JUMPDEST DUP4 SSTORE POP JUMPDEST PUSH1 0x1 PUSH1 0x2 DUP9 MUL ADD DUP9 SSTORE POP POP POP JUMPDEST POP POP POP POP POP POP JUMP JUMPDEST PUSH0 PUSH1 0x20 DUP3 ADD SWAP1 POP DUP2 DUP2 SUB PUSH0 DUP4 ADD MSTORE PUSH2 0xC57 DUP2 DUP5 PUSH2 0x631 JUMP JUMPDEST SWAP1 POP SWAP3 SWAP2 POP POP JUMP INVALID LOG2 PUSH5 0x6970667358 0x22 SLT KECCAK256 ADDMOD 0xAA CALLER 0xCF PUSH27 0x8824A0B5D078F89A4334C2A5781D43E173AC9CE9CBA468DAB21EBC PUSH5 0x736F6C6343 STOP ADDMOD XOR STOP CALLER "
				},
				"gasEstimates": {
					"creation": {
						"codeDepositCost": "644200",
						"executionCost": "5687",
						"totalCost": "649887"
					},
					"external": {
						"addCandidate(string)": "infinite",
						"candidates(uint256)": "infinite",
						"castVote(uint256)": "infinite",
						"hasVoted(address)": "2811",
						"queryVotes(uint256)": "infinite",
						"totalCandidates()": "2447"
					}
				},
				"methodIdentifiers": {
					"addCandidate(string)": "462e91ec",
					"candidates(uint256)": "3477ee2e",
					"castVote(uint256)": "3eb76b9c",
					"hasVoted(address)": "09eef43e",
					"queryVotes(uint256)": "b4207d54",
					"totalCandidates()": "3866965c"
				}
			},
			"storageLayout": {
				"storage": [
					{
						"astId": 11,
						"contract": "Votingsystem.sol:VotingSystem",
						"label": "candidates",
						"offset": 0,
						"slot": "0",
						"type": "t_mapping(t_uint256,t_struct(Candidate)6_storage)"
					},
					{
						"astId": 15,
						"contract": "Votingsystem.sol:VotingSystem",
						"label": "hasVoted",
						"offset": 0,
						"slot": "1",
						"type": "t_mapping(t_address,t_bool)"
					},
					{
						"astId": 17,
						"contract": "Votingsystem.sol:VotingSystem",
						"label": "totalCandidates",
						"offset": 0,
						"slot": "2",
						"type": "t_uint256"
					}
				],
				"types": {
					"t_address": {
						"encoding": "inplace",
						"label": "address",
						"numberOfBytes": "20"
					},
					"t_bool": {
						"encoding": "inplace",
						"label": "bool",
						"numberOfBytes": "1"
					},
					"t_mapping(t_address,t_bool)": {
						"encoding": "mapping",
						"key": "t_address",
						"label": "mapping(address => bool)",
						"numberOfBytes": "32",
						"value": "t_bool"
					},
					"t_mapping(t_uint256,t_struct(Candidate)6_storage)": {
						"encoding": "mapping",
						"key": "t_uint256",
						"label": "mapping(uint256 => struct VotingSystem.Candidate)",
						"numberOfBytes": "32",
						"value": "t_struct(Candidate)6_storage"
					},
					"t_string_storage": {
						"encoding": "bytes",
						"label": "string",
						"numberOfBytes": "32"
					},
					"t_struct(Candidate)6_storage": {
						"encoding": "inplace",
						"label": "struct VotingSystem.Candidate",
						"members": [
							{
								"astId": 3,
								"contract": "Votingsystem.sol:VotingSystem",
								"label": "name",
								"offset": 0,
								"slot": "0",
								"type": "t_string_storage"
							},
							{
								"astId": 5,
								"contract": "Votingsystem.sol:VotingSystem",
								"label": "voteCount",
								"offset": 0,
								"slot": "1",
								"type": "t_uint256"
							}
						],
						"numberOfBytes": "64"
					},
					"t_uint256": {
						"encoding": "inplace",
						"label": "uint256",
						"numberOfBytes": "32"
					}
				}
			},
			"userdoc": {
				"kind": "user",
				"methods": {},
				"version": 1
			}
		}
	}
}